{
  "contractName": "LeeChiaHao721",
  "abi": [
    {
      "inputs": [],
      "stateMutability": "nonpayable",
      "type": "constructor"
    },
    {
      "anonymous": false,
      "inputs": [
        {
          "indexed": false,
          "internalType": "address",
          "name": "previousAdmin",
          "type": "address"
        },
        {
          "indexed": false,
          "internalType": "address",
          "name": "newAdmin",
          "type": "address"
        }
      ],
      "name": "AdminChanged",
      "type": "event"
    },
    {
      "anonymous": false,
      "inputs": [
        {
          "indexed": true,
          "internalType": "address",
          "name": "owner",
          "type": "address"
        },
        {
          "indexed": true,
          "internalType": "address",
          "name": "approved",
          "type": "address"
        },
        {
          "indexed": true,
          "internalType": "uint256",
          "name": "tokenId",
          "type": "uint256"
        }
      ],
      "name": "Approval",
      "type": "event"
    },
    {
      "anonymous": false,
      "inputs": [
        {
          "indexed": true,
          "internalType": "address",
          "name": "owner",
          "type": "address"
        },
        {
          "indexed": true,
          "internalType": "address",
          "name": "operator",
          "type": "address"
        },
        {
          "indexed": false,
          "internalType": "bool",
          "name": "approved",
          "type": "bool"
        }
      ],
      "name": "ApprovalForAll",
      "type": "event"
    },
    {
      "anonymous": false,
      "inputs": [
        {
          "indexed": true,
          "internalType": "address",
          "name": "beacon",
          "type": "address"
        }
      ],
      "name": "BeaconUpgraded",
      "type": "event"
    },
    {
      "anonymous": false,
      "inputs": [
        {
          "indexed": false,
          "internalType": "uint8",
          "name": "version",
          "type": "uint8"
        }
      ],
      "name": "Initialized",
      "type": "event"
    },
    {
      "anonymous": false,
      "inputs": [
        {
          "indexed": true,
          "internalType": "address",
          "name": "previousOwner",
          "type": "address"
        },
        {
          "indexed": true,
          "internalType": "address",
          "name": "newOwner",
          "type": "address"
        }
      ],
      "name": "OwnershipTransferred",
      "type": "event"
    },
    {
      "anonymous": false,
      "inputs": [
        {
          "indexed": false,
          "internalType": "address",
          "name": "account",
          "type": "address"
        }
      ],
      "name": "Paused",
      "type": "event"
    },
    {
      "anonymous": false,
      "inputs": [
        {
          "indexed": true,
          "internalType": "address",
          "name": "from",
          "type": "address"
        },
        {
          "indexed": true,
          "internalType": "address",
          "name": "to",
          "type": "address"
        },
        {
          "indexed": true,
          "internalType": "uint256",
          "name": "tokenId",
          "type": "uint256"
        }
      ],
      "name": "Transfer",
      "type": "event"
    },
    {
      "anonymous": false,
      "inputs": [
        {
          "indexed": false,
          "internalType": "address",
          "name": "account",
          "type": "address"
        }
      ],
      "name": "Unpaused",
      "type": "event"
    },
    {
      "anonymous": false,
      "inputs": [
        {
          "indexed": true,
          "internalType": "address",
          "name": "implementation",
          "type": "address"
        }
      ],
      "name": "Upgraded",
      "type": "event"
    },
    {
      "inputs": [
        {
          "internalType": "address",
          "name": "to",
          "type": "address"
        },
        {
          "internalType": "uint256",
          "name": "tokenId",
          "type": "uint256"
        }
      ],
      "name": "approve",
      "outputs": [],
      "stateMutability": "nonpayable",
      "type": "function"
    },
    {
      "inputs": [
        {
          "internalType": "address",
          "name": "owner",
          "type": "address"
        }
      ],
      "name": "balanceOf",
      "outputs": [
        {
          "internalType": "uint256",
          "name": "",
          "type": "uint256"
        }
      ],
      "stateMutability": "view",
      "type": "function",
      "constant": true
    },
    {
      "inputs": [
        {
          "internalType": "uint256",
          "name": "tokenId",
          "type": "uint256"
        }
      ],
      "name": "burn",
      "outputs": [],
      "stateMutability": "nonpayable",
      "type": "function"
    },
    {
      "inputs": [
        {
          "internalType": "uint256",
          "name": "tokenId",
          "type": "uint256"
        }
      ],
      "name": "getApproved",
      "outputs": [
        {
          "internalType": "address",
          "name": "",
          "type": "address"
        }
      ],
      "stateMutability": "view",
      "type": "function",
      "constant": true
    },
    {
      "inputs": [
        {
          "internalType": "address",
          "name": "owner",
          "type": "address"
        },
        {
          "internalType": "address",
          "name": "operator",
          "type": "address"
        }
      ],
      "name": "isApprovedForAll",
      "outputs": [
        {
          "internalType": "bool",
          "name": "",
          "type": "bool"
        }
      ],
      "stateMutability": "view",
      "type": "function",
      "constant": true
    },
    {
      "inputs": [],
      "name": "name",
      "outputs": [
        {
          "internalType": "string",
          "name": "",
          "type": "string"
        }
      ],
      "stateMutability": "view",
      "type": "function",
      "constant": true
    },
    {
      "inputs": [],
      "name": "owner",
      "outputs": [
        {
          "internalType": "address",
          "name": "",
          "type": "address"
        }
      ],
      "stateMutability": "view",
      "type": "function",
      "constant": true
    },
    {
      "inputs": [
        {
          "internalType": "uint256",
          "name": "tokenId",
          "type": "uint256"
        }
      ],
      "name": "ownerOf",
      "outputs": [
        {
          "internalType": "address",
          "name": "",
          "type": "address"
        }
      ],
      "stateMutability": "view",
      "type": "function",
      "constant": true
    },
    {
      "inputs": [],
      "name": "paused",
      "outputs": [
        {
          "internalType": "bool",
          "name": "",
          "type": "bool"
        }
      ],
      "stateMutability": "view",
      "type": "function",
      "constant": true
    },
    {
      "inputs": [],
      "name": "proxiableUUID",
      "outputs": [
        {
          "internalType": "bytes32",
          "name": "",
          "type": "bytes32"
        }
      ],
      "stateMutability": "view",
      "type": "function",
      "constant": true
    },
    {
      "inputs": [],
      "name": "renounceOwnership",
      "outputs": [],
      "stateMutability": "nonpayable",
      "type": "function"
    },
    {
      "inputs": [
        {
          "internalType": "address",
          "name": "from",
          "type": "address"
        },
        {
          "internalType": "address",
          "name": "to",
          "type": "address"
        },
        {
          "internalType": "uint256",
          "name": "tokenId",
          "type": "uint256"
        }
      ],
      "name": "safeTransferFrom",
      "outputs": [],
      "stateMutability": "nonpayable",
      "type": "function"
    },
    {
      "inputs": [
        {
          "internalType": "address",
          "name": "from",
          "type": "address"
        },
        {
          "internalType": "address",
          "name": "to",
          "type": "address"
        },
        {
          "internalType": "uint256",
          "name": "tokenId",
          "type": "uint256"
        },
        {
          "internalType": "bytes",
          "name": "data",
          "type": "bytes"
        }
      ],
      "name": "safeTransferFrom",
      "outputs": [],
      "stateMutability": "nonpayable",
      "type": "function"
    },
    {
      "inputs": [
        {
          "internalType": "address",
          "name": "operator",
          "type": "address"
        },
        {
          "internalType": "bool",
          "name": "approved",
          "type": "bool"
        }
      ],
      "name": "setApprovalForAll",
      "outputs": [],
      "stateMutability": "nonpayable",
      "type": "function"
    },
    {
      "inputs": [
        {
          "internalType": "bytes4",
          "name": "interfaceId",
          "type": "bytes4"
        }
      ],
      "name": "supportsInterface",
      "outputs": [
        {
          "internalType": "bool",
          "name": "",
          "type": "bool"
        }
      ],
      "stateMutability": "view",
      "type": "function",
      "constant": true
    },
    {
      "inputs": [],
      "name": "symbol",
      "outputs": [
        {
          "internalType": "string",
          "name": "",
          "type": "string"
        }
      ],
      "stateMutability": "view",
      "type": "function",
      "constant": true
    },
    {
      "inputs": [
        {
          "internalType": "uint256",
          "name": "tokenId",
          "type": "uint256"
        }
      ],
      "name": "tokenURI",
      "outputs": [
        {
          "internalType": "string",
          "name": "",
          "type": "string"
        }
      ],
      "stateMutability": "view",
      "type": "function",
      "constant": true
    },
    {
      "inputs": [
        {
          "internalType": "address",
          "name": "from",
          "type": "address"
        },
        {
          "internalType": "address",
          "name": "to",
          "type": "address"
        },
        {
          "internalType": "uint256",
          "name": "tokenId",
          "type": "uint256"
        }
      ],
      "name": "transferFrom",
      "outputs": [],
      "stateMutability": "nonpayable",
      "type": "function"
    },
    {
      "inputs": [
        {
          "internalType": "address",
          "name": "newOwner",
          "type": "address"
        }
      ],
      "name": "transferOwnership",
      "outputs": [],
      "stateMutability": "nonpayable",
      "type": "function"
    },
    {
      "inputs": [
        {
          "internalType": "address",
          "name": "newImplementation",
          "type": "address"
        }
      ],
      "name": "upgradeTo",
      "outputs": [],
      "stateMutability": "nonpayable",
      "type": "function"
    },
    {
      "inputs": [
        {
          "internalType": "address",
          "name": "newImplementation",
          "type": "address"
        },
        {
          "internalType": "bytes",
          "name": "data",
          "type": "bytes"
        }
      ],
      "name": "upgradeToAndCall",
      "outputs": [],
      "stateMutability": "payable",
      "type": "function",
      "payable": true
    },
    {
      "inputs": [],
      "name": "initialize",
      "outputs": [],
      "stateMutability": "nonpayable",
      "type": "function"
    },
    {
      "inputs": [],
      "name": "pause",
      "outputs": [],
      "stateMutability": "nonpayable",
      "type": "function"
    },
    {
      "inputs": [],
      "name": "unPause",
      "outputs": [],
      "stateMutability": "nonpayable",
      "type": "function"
    },
    {
      "inputs": [
        {
          "internalType": "address",
          "name": "to",
          "type": "address"
        }
      ],
      "name": "safeMint",
      "outputs": [],
      "stateMutability": "nonpayable",
      "type": "function"
    },
    {
      "inputs": [],
      "name": "getCounter",
      "outputs": [
        {
          "internalType": "uint256",
          "name": "",
          "type": "uint256"
        }
      ],
      "stateMutability": "view",
      "type": "function",
      "constant": true
    }
  ],
  "bytecode": "0x60a06040523073ffffffffffffffffffffffffffffffffffffffff1660809073ffffffffffffffffffffffffffffffffffffffff168152503480156200004457600080fd5b50620000556200005b60201b60201c565b62000206565b600060019054906101000a900460ff1615620000ae576040517f08c379a0000000000000000000000000000000000000000000000000000000008152600401620000a590620001a9565b60405180910390fd5b60ff801660008054906101000a900460ff1660ff161015620001205760ff6000806101000a81548160ff021916908360ff1602179055507f7f26b83ff96e1f2b6a682f133852f6798a09c465da95921460cefb384740249860ff604051620001179190620001e9565b60405180910390a15b565b600082825260208201905092915050565b7f496e697469616c697a61626c653a20636f6e747261637420697320696e69746960008201527f616c697a696e6700000000000000000000000000000000000000000000000000602082015250565b60006200019160278362000122565b91506200019e8262000133565b604082019050919050565b60006020820190508181036000830152620001c48162000182565b9050919050565b600060ff82169050919050565b620001e381620001cb565b82525050565b6000602082019050620002006000830184620001d8565b92915050565b6080516144ff6200023e60003960008181610912015281816109a001528181610b3e01528181610bcc0152610c7c01526144ff6000f3fe6080604052600436106101815760003560e01c806370a08231116100d157806395d89b411161008a578063c87b56dd11610064578063c87b56dd14610525578063e985e9c514610562578063f2fde38b1461059f578063f7b188a5146105c857610181565b806395d89b41146104a8578063a22cb465146104d3578063b88d4fde146104fc57610181565b806370a08231146103d0578063715018a61461040d5780638129fc1c146104245780638456cb591461043b5780638ada066e146104525780638da5cb5b1461047d57610181565b806340d097c31161013e5780634f1ef286116101185780634f1ef2861461032157806352d1902d1461033d5780635c975abb146103685780636352211e1461039357610181565b806340d097c3146102a657806342842e0e146102cf57806342966c68146102f857610181565b806301ffc9a71461018657806306fdde03146101c3578063081812fc146101ee578063095ea7b31461022b57806323b872dd146102545780633659cfe61461027d575b600080fd5b34801561019257600080fd5b506101ad60048036038101906101a89190612b4f565b6105df565b6040516101ba9190612b97565b60405180910390f35b3480156101cf57600080fd5b506101d86106c1565b6040516101e59190612c42565b60405180910390f35b3480156101fa57600080fd5b5061021560048036038101906102109190612c9a565b610753565b6040516102229190612d08565b60405180910390f35b34801561023757600080fd5b50610252600480360381019061024d9190612d4f565b610799565b005b34801561026057600080fd5b5061027b60048036038101906102769190612d8f565b6108b0565b005b34801561028957600080fd5b506102a4600480360381019061029f9190612de2565b610910565b005b3480156102b257600080fd5b506102cd60048036038101906102c89190612de2565b610a98565b005b3480156102db57600080fd5b506102f660048036038101906102f19190612d8f565b610ac0565b005b34801561030457600080fd5b5061031f600480360381019061031a9190612c9a565b610ae0565b005b61033b60048036038101906103369190612f44565b610b3c565b005b34801561034957600080fd5b50610352610c78565b60405161035f9190612fb9565b60405180910390f35b34801561037457600080fd5b5061037d610d31565b60405161038a9190612b97565b60405180910390f35b34801561039f57600080fd5b506103ba60048036038101906103b59190612c9a565b610d48565b6040516103c79190612d08565b60405180910390f35b3480156103dc57600080fd5b506103f760048036038101906103f29190612de2565b610df9565b6040516104049190612fe3565b60405180910390f35b34801561041957600080fd5b50610422610eb0565b005b34801561043057600080fd5b50610439610ec4565b005b34801561044757600080fd5b5061045061108e565b005b34801561045e57600080fd5b506104676110a0565b6040516104749190612fe3565b60405180910390f35b34801561048957600080fd5b506104926110b2565b60405161049f9190612d08565b60405180910390f35b3480156104b457600080fd5b506104bd6110dc565b6040516104ca9190612c42565b60405180910390f35b3480156104df57600080fd5b506104fa60048036038101906104f5919061302a565b61116e565b005b34801561050857600080fd5b50610523600480360381019061051e919061306a565b611184565b005b34801561053157600080fd5b5061054c60048036038101906105479190612c9a565b6111e6565b6040516105599190612c42565b60405180910390f35b34801561056e57600080fd5b50610589600480360381019061058491906130ed565b61124e565b6040516105969190612b97565b60405180910390f35b3480156105ab57600080fd5b506105c660048036038101906105c19190612de2565b6112e2565b005b3480156105d457600080fd5b506105dd611365565b005b60007f80ac58cd000000000000000000000000000000000000000000000000000000007bffffffffffffffffffffffffffffffffffffffffffffffffffffffff1916827bffffffffffffffffffffffffffffffffffffffffffffffffffffffff191614806106aa57507f5b5e139f000000000000000000000000000000000000000000000000000000007bffffffffffffffffffffffffffffffffffffffffffffffffffffffff1916827bffffffffffffffffffffffffffffffffffffffffffffffffffffffff1916145b806106ba57506106b982611377565b5b9050919050565b6060606580546106d09061315c565b80601f01602080910402602001604051908101604052809291908181526020018280546106fc9061315c565b80156107495780601f1061071e57610100808354040283529160200191610749565b820191906000526020600020905b81548152906001019060200180831161072c57829003601f168201915b5050505050905090565b600061075e826113e1565b6069600083815260200190815260200160002060009054906101000a900473ffffffffffffffffffffffffffffffffffffffff169050919050565b60006107a482610d48565b90508073ffffffffffffffffffffffffffffffffffffffff168373ffffffffffffffffffffffffffffffffffffffff1603610814576040517f08c379a000000000000000000000000000000000000000000000000000000000815260040161080b906131ff565b60405180910390fd5b8073ffffffffffffffffffffffffffffffffffffffff1661083361142c565b73ffffffffffffffffffffffffffffffffffffffff16148061086257506108618161085c61142c565b61124e565b5b6108a1576040517f08c379a000000000000000000000000000000000000000000000000000000000815260040161089890613291565b60405180910390fd5b6108ab8383611434565b505050565b6108c16108bb61142c565b826114ed565b610900576040517f08c379a00000000000000000000000000000000000000000000000000000000081526004016108f790613323565b60405180910390fd5b61090b838383611582565b505050565b7f000000000000000000000000000000000000000000000000000000000000000073ffffffffffffffffffffffffffffffffffffffff163073ffffffffffffffffffffffffffffffffffffffff160361099e576040517f08c379a0000000000000000000000000000000000000000000000000000000008152600401610995906133b5565b60405180910390fd5b7f000000000000000000000000000000000000000000000000000000000000000073ffffffffffffffffffffffffffffffffffffffff166109dd6117e8565b73ffffffffffffffffffffffffffffffffffffffff1614610a33576040517f08c379a0000000000000000000000000000000000000000000000000000000008152600401610a2a90613447565b60405180910390fd5b610a3c8161183f565b610a9581600067ffffffffffffffff811115610a5b57610a5a612e19565b5b6040519080825280601f01601f191660200182016040528015610a8d5781602001600182028036833780820191505090505b50600061184a565b50565b6000610aa56101916119b8565b9050610ab26101916119c6565b610abc82826119dc565b5050565b610adb83838360405180602001604052806000815250611184565b505050565b610af1610aeb61142c565b826114ed565b610b30576040517f08c379a0000000000000000000000000000000000000000000000000000000008152600401610b2790613323565b60405180910390fd5b610b39816119fa565b50565b7f000000000000000000000000000000000000000000000000000000000000000073ffffffffffffffffffffffffffffffffffffffff163073ffffffffffffffffffffffffffffffffffffffff1603610bca576040517f08c379a0000000000000000000000000000000000000000000000000000000008152600401610bc1906133b5565b60405180910390fd5b7f000000000000000000000000000000000000000000000000000000000000000073ffffffffffffffffffffffffffffffffffffffff16610c096117e8565b73ffffffffffffffffffffffffffffffffffffffff1614610c5f576040517f08c379a0000000000000000000000000000000000000000000000000000000008152600401610c5690613447565b60405180910390fd5b610c688261183f565b610c748282600161184a565b5050565b60007f000000000000000000000000000000000000000000000000000000000000000073ffffffffffffffffffffffffffffffffffffffff163073ffffffffffffffffffffffffffffffffffffffff1614610d08576040517f08c379a0000000000000000000000000000000000000000000000000000000008152600401610cff906134d9565b60405180910390fd5b7f360894a13ba1a3210667c828492db98dca3e2076cc3735a920a3ca505d382bbc60001b905090565b6000609760009054906101000a900460ff16905090565b6000806067600084815260200190815260200160002060009054906101000a900473ffffffffffffffffffffffffffffffffffffffff169050600073ffffffffffffffffffffffffffffffffffffffff168173ffffffffffffffffffffffffffffffffffffffff1603610df0576040517f08c379a0000000000000000000000000000000000000000000000000000000008152600401610de790613545565b60405180910390fd5b80915050919050565b60008073ffffffffffffffffffffffffffffffffffffffff168273ffffffffffffffffffffffffffffffffffffffff1603610e69576040517f08c379a0000000000000000000000000000000000000000000000000000000008152600401610e60906135d7565b60405180910390fd5b606860008373ffffffffffffffffffffffffffffffffffffffff1673ffffffffffffffffffffffffffffffffffffffff168152602001908152602001600020549050919050565b610eb8611b17565b610ec26000611b95565b565b60008060019054906101000a900460ff16159050808015610ef55750600160008054906101000a900460ff1660ff16105b80610f225750610f0430611c5b565b158015610f215750600160008054906101000a900460ff1660ff16145b5b610f61576040517f08c379a0000000000000000000000000000000000000000000000000000000008152600401610f5890613669565b60405180910390fd5b60016000806101000a81548160ff021916908360ff1602179055508015610f9e576001600060016101000a81548160ff0219169083151502179055505b6110126040518060400160405280600a81526020017f4c65654368696148616f000000000000000000000000000000000000000000008152506040518060400160405280600381526020017f4c43480000000000000000000000000000000000000000000000000000000000815250611c7e565b61101a611cdb565b611022611d34565b61102a611d8d565b611032611dde565b801561108b5760008060016101000a81548160ff0219169083151502179055507f7f26b83ff96e1f2b6a682f133852f6798a09c465da95921460cefb3847402498600160405161108291906136db565b60405180910390a15b50565b611096611b17565b61109e611e2f565b565b60006110ad6101916119b8565b905090565b600060c960009054906101000a900473ffffffffffffffffffffffffffffffffffffffff16905090565b6060606680546110eb9061315c565b80601f01602080910402602001604051908101604052809291908181526020018280546111179061315c565b80156111645780601f1061113957610100808354040283529160200191611164565b820191906000526020600020905b81548152906001019060200180831161114757829003601f168201915b5050505050905090565b61118061117961142c565b8383611e92565b5050565b61119561118f61142c565b836114ed565b6111d4576040517f08c379a00000000000000000000000000000000000000000000000000000000081526004016111cb90613323565b60405180910390fd5b6111e084848484611ffe565b50505050565b60606111f1826113e1565b60006111fb61205a565b9050600081511161121b5760405180602001604052806000815250611246565b8061122584612071565b604051602001611236929190613732565b6040516020818303038152906040525b915050919050565b6000606a60008473ffffffffffffffffffffffffffffffffffffffff1673ffffffffffffffffffffffffffffffffffffffff16815260200190815260200160002060008373ffffffffffffffffffffffffffffffffffffffff1673ffffffffffffffffffffffffffffffffffffffff16815260200190815260200160002060009054906101000a900460ff16905092915050565b6112ea611b17565b600073ffffffffffffffffffffffffffffffffffffffff168173ffffffffffffffffffffffffffffffffffffffff1603611359576040517f08c379a0000000000000000000000000000000000000000000000000000000008152600401611350906137c8565b60405180910390fd5b61136281611b95565b50565b61136d611b17565b6113756121d1565b565b60007f01ffc9a7000000000000000000000000000000000000000000000000000000007bffffffffffffffffffffffffffffffffffffffffffffffffffffffff1916827bffffffffffffffffffffffffffffffffffffffffffffffffffffffff1916149050919050565b6113ea81612234565b611429576040517f08c379a000000000000000000000000000000000000000000000000000000000815260040161142090613545565b60405180910390fd5b50565b600033905090565b816069600083815260200190815260200160002060006101000a81548173ffffffffffffffffffffffffffffffffffffffff021916908373ffffffffffffffffffffffffffffffffffffffff160217905550808273ffffffffffffffffffffffffffffffffffffffff166114a783610d48565b73ffffffffffffffffffffffffffffffffffffffff167f8c5be1e5ebec7d5bd14f71427d1e84f3dd0314c0f7b2291e5b200ac8c7c3b92560405160405180910390a45050565b6000806114f983610d48565b90508073ffffffffffffffffffffffffffffffffffffffff168473ffffffffffffffffffffffffffffffffffffffff16148061153b575061153a818561124e565b5b8061157957508373ffffffffffffffffffffffffffffffffffffffff1661156184610753565b73ffffffffffffffffffffffffffffffffffffffff16145b91505092915050565b8273ffffffffffffffffffffffffffffffffffffffff166115a282610d48565b73ffffffffffffffffffffffffffffffffffffffff16146115f8576040517f08c379a00000000000000000000000000000000000000000000000000000000081526004016115ef9061385a565b60405180910390fd5b600073ffffffffffffffffffffffffffffffffffffffff168273ffffffffffffffffffffffffffffffffffffffff1603611667576040517f08c379a000000000000000000000000000000000000000000000000000000000815260040161165e906138ec565b60405180910390fd5b6116728383836122a0565b61167d600082611434565b6001606860008573ffffffffffffffffffffffffffffffffffffffff1673ffffffffffffffffffffffffffffffffffffffff16815260200190815260200160002060008282546116cd919061393b565b925050819055506001606860008473ffffffffffffffffffffffffffffffffffffffff1673ffffffffffffffffffffffffffffffffffffffff1681526020019081526020016000206000828254611724919061396f565b92505081905550816067600083815260200190815260200160002060006101000a81548173ffffffffffffffffffffffffffffffffffffffff021916908373ffffffffffffffffffffffffffffffffffffffff160217905550808273ffffffffffffffffffffffffffffffffffffffff168473ffffffffffffffffffffffffffffffffffffffff167fddf252ad1be2c89b69c2b068fc378daa952ba7f163c4a11628f55a4df523b3ef60405160405180910390a46117e38383836122b8565b505050565b60006118167f360894a13ba1a3210667c828492db98dca3e2076cc3735a920a3ca505d382bbc60001b6122bd565b60000160009054906101000a900473ffffffffffffffffffffffffffffffffffffffff16905090565b611847611b17565b50565b6118767f4910fdfa16fed3260ed0e7147f7cc6da11a60208b5b9406d12a635614ffd914360001b6122c7565b60000160009054906101000a900460ff161561189a57611895836122d1565b6119b3565b8273ffffffffffffffffffffffffffffffffffffffff166352d1902d6040518163ffffffff1660e01b8152600401602060405180830381865afa92505050801561190257506040513d601f19601f820116820180604052508101906118ff91906139cf565b60015b611941576040517f08c379a000000000000000000000000000000000000000000000000000000000815260040161193890613a6e565b60405180910390fd5b7f360894a13ba1a3210667c828492db98dca3e2076cc3735a920a3ca505d382bbc60001b81146119a6576040517f08c379a000000000000000000000000000000000000000000000000000000000815260040161199d90613b00565b60405180910390fd5b506119b283838361238a565b5b505050565b600081600001549050919050565b6001816000016000828254019250508190555050565b6119f68282604051806020016040528060008152506123b6565b5050565b6000611a0582610d48565b9050611a13816000846122a0565b611a1e600083611434565b6001606860008373ffffffffffffffffffffffffffffffffffffffff1673ffffffffffffffffffffffffffffffffffffffff1681526020019081526020016000206000828254611a6e919061393b565b925050819055506067600083815260200190815260200160002060006101000a81549073ffffffffffffffffffffffffffffffffffffffff021916905581600073ffffffffffffffffffffffffffffffffffffffff168273ffffffffffffffffffffffffffffffffffffffff167fddf252ad1be2c89b69c2b068fc378daa952ba7f163c4a11628f55a4df523b3ef60405160405180910390a4611b13816000846122b8565b5050565b611b1f61142c565b73ffffffffffffffffffffffffffffffffffffffff16611b3d6110b2565b73ffffffffffffffffffffffffffffffffffffffff1614611b93576040517f08c379a0000000000000000000000000000000000000000000000000000000008152600401611b8a90613b6c565b60405180910390fd5b565b600060c960009054906101000a900473ffffffffffffffffffffffffffffffffffffffff1690508160c960006101000a81548173ffffffffffffffffffffffffffffffffffffffff021916908373ffffffffffffffffffffffffffffffffffffffff1602179055508173ffffffffffffffffffffffffffffffffffffffff168173ffffffffffffffffffffffffffffffffffffffff167f8be0079c531659141344cd1fd0a4f28419497f9722a3daafe3b4186f6b6457e060405160405180910390a35050565b6000808273ffffffffffffffffffffffffffffffffffffffff163b119050919050565b600060019054906101000a900460ff16611ccd576040517f08c379a0000000000000000000000000000000000000000000000000000000008152600401611cc490613bfe565b60405180910390fd5b611cd78282612411565b5050565b600060019054906101000a900460ff16611d2a576040517f08c379a0000000000000000000000000000000000000000000000000000000008152600401611d2190613bfe565b60405180910390fd5b611d32612484565b565b600060019054906101000a900460ff16611d83576040517f08c379a0000000000000000000000000000000000000000000000000000000008152600401611d7a90613bfe565b60405180910390fd5b611d8b6124f0565b565b600060019054906101000a900460ff16611ddc576040517f08c379a0000000000000000000000000000000000000000000000000000000008152600401611dd390613bfe565b60405180910390fd5b565b600060019054906101000a900460ff16611e2d576040517f08c379a0000000000000000000000000000000000000000000000000000000008152600401611e2490613bfe565b60405180910390fd5b565b611e37612551565b6001609760006101000a81548160ff0219169083151502179055507f62e78cea01bee320cd4e420270b5ea74000d11b0c9f74754ebdbfc544b05a258611e7b61142c565b604051611e889190612d08565b60405180910390a1565b8173ffffffffffffffffffffffffffffffffffffffff168373ffffffffffffffffffffffffffffffffffffffff1603611f00576040517f08c379a0000000000000000000000000000000000000000000000000000000008152600401611ef790613c6a565b60405180910390fd5b80606a60008573ffffffffffffffffffffffffffffffffffffffff1673ffffffffffffffffffffffffffffffffffffffff16815260200190815260200160002060008473ffffffffffffffffffffffffffffffffffffffff1673ffffffffffffffffffffffffffffffffffffffff16815260200190815260200160002060006101000a81548160ff0219169083151502179055508173ffffffffffffffffffffffffffffffffffffffff168373ffffffffffffffffffffffffffffffffffffffff167f17307eab39ab6107e8899845ad3d59bd9653f200f220920489ca2b5937696c3183604051611ff19190612b97565b60405180910390a3505050565b612009848484611582565b6120158484848461259b565b612054576040517f08c379a000000000000000000000000000000000000000000000000000000000815260040161204b90613cfc565b60405180910390fd5b50505050565b606060405180602001604052806000815250905090565b6060600082036120b8576040518060400160405280600181526020017f300000000000000000000000000000000000000000000000000000000000000081525090506121cc565b600082905060005b600082146120ea5780806120d390613d1c565b915050600a826120e39190613d93565b91506120c0565b60008167ffffffffffffffff81111561210657612105612e19565b5b6040519080825280601f01601f1916602001820160405280156121385781602001600182028036833780820191505090505b5090505b600085146121c557600182612151919061393b565b9150600a856121609190613dc4565b603061216c919061396f565b60f81b81838151811061218257612181613df5565b5b60200101907effffffffffffffffffffffffffffffffffffffffffffffffffffffffffffff1916908160001a905350600a856121be9190613d93565b945061213c565b8093505050505b919050565b6121d9612722565b6000609760006101000a81548160ff0219169083151502179055507f5db9ee0a495bf2e6ff9c91a7834c1ba4fdd244a5e8aa4e537bd38aeae4b073aa61221d61142c565b60405161222a9190612d08565b60405180910390a1565b60008073ffffffffffffffffffffffffffffffffffffffff166067600084815260200190815260200160002060009054906101000a900473ffffffffffffffffffffffffffffffffffffffff1673ffffffffffffffffffffffffffffffffffffffff1614159050919050565b6122a8612551565b6122b383838361276b565b505050565b505050565b6000819050919050565b6000819050919050565b6122da81611c5b565b612319576040517f08c379a000000000000000000000000000000000000000000000000000000000815260040161231090613e96565b60405180910390fd5b806123467f360894a13ba1a3210667c828492db98dca3e2076cc3735a920a3ca505d382bbc60001b6122bd565b60000160006101000a81548173ffffffffffffffffffffffffffffffffffffffff021916908373ffffffffffffffffffffffffffffffffffffffff16021790555050565b61239383612770565b6000825111806123a05750805b156123b1576123af83836127bf565b505b505050565b6123c083836128a3565b6123cd600084848461259b565b61240c576040517f08c379a000000000000000000000000000000000000000000000000000000000815260040161240390613cfc565b60405180910390fd5b505050565b600060019054906101000a900460ff16612460576040517f08c379a000000000000000000000000000000000000000000000000000000000815260040161245790613bfe565b60405180910390fd5b816065908161246f9190614058565b50806066908161247f9190614058565b505050565b600060019054906101000a900460ff166124d3576040517f08c379a00000000000000000000000000000000000000000000000000000000081526004016124ca90613bfe565b60405180910390fd5b6000609760006101000a81548160ff021916908315150217905550565b600060019054906101000a900460ff1661253f576040517f08c379a000000000000000000000000000000000000000000000000000000000815260040161253690613bfe565b60405180910390fd5b61254f61254a61142c565b611b95565b565b612559610d31565b15612599576040517f08c379a000000000000000000000000000000000000000000000000000000000815260040161259090614176565b60405180910390fd5b565b60006125bc8473ffffffffffffffffffffffffffffffffffffffff16611c5b565b15612715578373ffffffffffffffffffffffffffffffffffffffff1663150b7a026125e561142c565b8786866040518563ffffffff1660e01b815260040161260794939291906141eb565b6020604051808303816000875af192505050801561264357506040513d601f19601f82011682018060405250810190612640919061424c565b60015b6126c5573d8060008114612673576040519150601f19603f3d011682016040523d82523d6000602084013e612678565b606091505b5060008151036126bd576040517f08c379a00000000000000000000000000000000000000000000000000000000081526004016126b490613cfc565b60405180910390fd5b805181602001fd5b63150b7a0260e01b7bffffffffffffffffffffffffffffffffffffffffffffffffffffffff1916817bffffffffffffffffffffffffffffffffffffffffffffffffffffffff19161491505061271a565b600190505b949350505050565b61272a610d31565b612769576040517f08c379a0000000000000000000000000000000000000000000000000000000008152600401612760906142c5565b60405180910390fd5b565b505050565b612779816122d1565b8073ffffffffffffffffffffffffffffffffffffffff167fbc7cd75a20ee27fd9adebab32041f755214dbc6bffa90cc0225b39da2e5c2d3b60405160405180910390a250565b60606127ca83611c5b565b612809576040517f08c379a000000000000000000000000000000000000000000000000000000000815260040161280090614357565b60405180910390fd5b6000808473ffffffffffffffffffffffffffffffffffffffff168460405161283191906143b3565b600060405180830381855af49150503d806000811461286c576040519150601f19603f3d011682016040523d82523d6000602084013e612871565b606091505b509150915061289982826040518060600160405280602781526020016144a360279139612a7c565b9250505092915050565b600073ffffffffffffffffffffffffffffffffffffffff168273ffffffffffffffffffffffffffffffffffffffff1603612912576040517f08c379a000000000000000000000000000000000000000000000000000000000815260040161290990614416565b60405180910390fd5b61291b81612234565b1561295b576040517f08c379a000000000000000000000000000000000000000000000000000000000815260040161295290614482565b60405180910390fd5b612967600083836122a0565b6001606860008473ffffffffffffffffffffffffffffffffffffffff1673ffffffffffffffffffffffffffffffffffffffff16815260200190815260200160002060008282546129b7919061396f565b92505081905550816067600083815260200190815260200160002060006101000a81548173ffffffffffffffffffffffffffffffffffffffff021916908373ffffffffffffffffffffffffffffffffffffffff160217905550808273ffffffffffffffffffffffffffffffffffffffff16600073ffffffffffffffffffffffffffffffffffffffff167fddf252ad1be2c89b69c2b068fc378daa952ba7f163c4a11628f55a4df523b3ef60405160405180910390a4612a78600083836122b8565b5050565b60608315612a8c57829050612adc565b600083511115612a9f5782518084602001fd5b816040517f08c379a0000000000000000000000000000000000000000000000000000000008152600401612ad39190612c42565b60405180910390fd5b9392505050565b6000604051905090565b600080fd5b600080fd5b60007fffffffff0000000000000000000000000000000000000000000000000000000082169050919050565b612b2c81612af7565b8114612b3757600080fd5b50565b600081359050612b4981612b23565b92915050565b600060208284031215612b6557612b64612aed565b5b6000612b7384828501612b3a565b91505092915050565b60008115159050919050565b612b9181612b7c565b82525050565b6000602082019050612bac6000830184612b88565b92915050565b600081519050919050565b600082825260208201905092915050565b60005b83811015612bec578082015181840152602081019050612bd1565b60008484015250505050565b6000601f19601f8301169050919050565b6000612c1482612bb2565b612c1e8185612bbd565b9350612c2e818560208601612bce565b612c3781612bf8565b840191505092915050565b60006020820190508181036000830152612c5c8184612c09565b905092915050565b6000819050919050565b612c7781612c64565b8114612c8257600080fd5b50565b600081359050612c9481612c6e565b92915050565b600060208284031215612cb057612caf612aed565b5b6000612cbe84828501612c85565b91505092915050565b600073ffffffffffffffffffffffffffffffffffffffff82169050919050565b6000612cf282612cc7565b9050919050565b612d0281612ce7565b82525050565b6000602082019050612d1d6000830184612cf9565b92915050565b612d2c81612ce7565b8114612d3757600080fd5b50565b600081359050612d4981612d23565b92915050565b60008060408385031215612d6657612d65612aed565b5b6000612d7485828601612d3a565b9250506020612d8585828601612c85565b9150509250929050565b600080600060608486031215612da857612da7612aed565b5b6000612db686828701612d3a565b9350506020612dc786828701612d3a565b9250506040612dd886828701612c85565b9150509250925092565b600060208284031215612df857612df7612aed565b5b6000612e0684828501612d3a565b91505092915050565b600080fd5b600080fd5b7f4e487b7100000000000000000000000000000000000000000000000000000000600052604160045260246000fd5b612e5182612bf8565b810181811067ffffffffffffffff82111715612e7057612e6f612e19565b5b80604052505050565b6000612e83612ae3565b9050612e8f8282612e48565b919050565b600067ffffffffffffffff821115612eaf57612eae612e19565b5b612eb882612bf8565b9050602081019050919050565b82818337600083830152505050565b6000612ee7612ee284612e94565b612e79565b905082815260208101848484011115612f0357612f02612e14565b5b612f0e848285612ec5565b509392505050565b600082601f830112612f2b57612f2a612e0f565b5b8135612f3b848260208601612ed4565b91505092915050565b60008060408385031215612f5b57612f5a612aed565b5b6000612f6985828601612d3a565b925050602083013567ffffffffffffffff811115612f8a57612f89612af2565b5b612f9685828601612f16565b9150509250929050565b6000819050919050565b612fb381612fa0565b82525050565b6000602082019050612fce6000830184612faa565b92915050565b612fdd81612c64565b82525050565b6000602082019050612ff86000830184612fd4565b92915050565b61300781612b7c565b811461301257600080fd5b50565b60008135905061302481612ffe565b92915050565b6000806040838503121561304157613040612aed565b5b600061304f85828601612d3a565b925050602061306085828601613015565b9150509250929050565b6000806000806080858703121561308457613083612aed565b5b600061309287828801612d3a565b94505060206130a387828801612d3a565b93505060406130b487828801612c85565b925050606085013567ffffffffffffffff8111156130d5576130d4612af2565b5b6130e187828801612f16565b91505092959194509250565b6000806040838503121561310457613103612aed565b5b600061311285828601612d3a565b925050602061312385828601612d3a565b9150509250929050565b7f4e487b7100000000000000000000000000000000000000000000000000000000600052602260045260246000fd5b6000600282049050600182168061317457607f821691505b6020821081036131875761318661312d565b5b50919050565b7f4552433732313a20617070726f76616c20746f2063757272656e74206f776e6560008201527f7200000000000000000000000000000000000000000000000000000000000000602082015250565b60006131e9602183612bbd565b91506131f48261318d565b604082019050919050565b60006020820190508181036000830152613218816131dc565b9050919050565b7f4552433732313a20617070726f76652063616c6c6572206973206e6f7420746f60008201527f6b656e206f776e6572206e6f7220617070726f76656420666f7220616c6c0000602082015250565b600061327b603e83612bbd565b91506132868261321f565b604082019050919050565b600060208201905081810360008301526132aa8161326e565b9050919050565b7f4552433732313a2063616c6c6572206973206e6f7420746f6b656e206f776e6560008201527f72206e6f7220617070726f766564000000000000000000000000000000000000602082015250565b600061330d602e83612bbd565b9150613318826132b1565b604082019050919050565b6000602082019050818103600083015261333c81613300565b9050919050565b7f46756e6374696f6e206d7573742062652063616c6c6564207468726f7567682060008201527f64656c656761746563616c6c0000000000000000000000000000000000000000602082015250565b600061339f602c83612bbd565b91506133aa82613343565b604082019050919050565b600060208201905081810360008301526133ce81613392565b9050919050565b7f46756e6374696f6e206d7573742062652063616c6c6564207468726f7567682060008201527f6163746976652070726f78790000000000000000000000000000000000000000602082015250565b6000613431602c83612bbd565b915061343c826133d5565b604082019050919050565b6000602082019050818103600083015261346081613424565b9050919050565b7f555550535570677261646561626c653a206d757374206e6f742062652063616c60008201527f6c6564207468726f7567682064656c656761746563616c6c0000000000000000602082015250565b60006134c3603883612bbd565b91506134ce82613467565b604082019050919050565b600060208201905081810360008301526134f2816134b6565b9050919050565b7f4552433732313a20696e76616c696420746f6b656e2049440000000000000000600082015250565b600061352f601883612bbd565b915061353a826134f9565b602082019050919050565b6000602082019050818103600083015261355e81613522565b9050919050565b7f4552433732313a2061646472657373207a65726f206973206e6f74206120766160008201527f6c6964206f776e65720000000000000000000000000000000000000000000000602082015250565b60006135c1602983612bbd565b91506135cc82613565565b604082019050919050565b600060208201905081810360008301526135f0816135b4565b9050919050565b7f496e697469616c697a61626c653a20636f6e747261637420697320616c72656160008201527f647920696e697469616c697a6564000000000000000000000000000000000000602082015250565b6000613653602e83612bbd565b915061365e826135f7565b604082019050919050565b6000602082019050818103600083015261368281613646565b9050919050565b6000819050919050565b600060ff82169050919050565b6000819050919050565b60006136c56136c06136bb84613689565b6136a0565b613693565b9050919050565b6136d5816136aa565b82525050565b60006020820190506136f060008301846136cc565b92915050565b600081905092915050565b600061370c82612bb2565b61371681856136f6565b9350613726818560208601612bce565b80840191505092915050565b600061373e8285613701565b915061374a8284613701565b91508190509392505050565b7f4f776e61626c653a206e6577206f776e657220697320746865207a65726f206160008201527f6464726573730000000000000000000000000000000000000000000000000000602082015250565b60006137b2602683612bbd565b91506137bd82613756565b604082019050919050565b600060208201905081810360008301526137e1816137a5565b9050919050565b7f4552433732313a207472616e736665722066726f6d20696e636f72726563742060008201527f6f776e6572000000000000000000000000000000000000000000000000000000602082015250565b6000613844602583612bbd565b915061384f826137e8565b604082019050919050565b6000602082019050818103600083015261387381613837565b9050919050565b7f4552433732313a207472616e7366657220746f20746865207a65726f2061646460008201527f7265737300000000000000000000000000000000000000000000000000000000602082015250565b60006138d6602483612bbd565b91506138e18261387a565b604082019050919050565b60006020820190508181036000830152613905816138c9565b9050919050565b7f4e487b7100000000000000000000000000000000000000000000000000000000600052601160045260246000fd5b600061394682612c64565b915061395183612c64565b92508282039050818111156139695761396861390c565b5b92915050565b600061397a82612c64565b915061398583612c64565b925082820190508082111561399d5761399c61390c565b5b92915050565b6139ac81612fa0565b81146139b757600080fd5b50565b6000815190506139c9816139a3565b92915050565b6000602082840312156139e5576139e4612aed565b5b60006139f3848285016139ba565b91505092915050565b7f45524331393637557067726164653a206e657720696d706c656d656e7461746960008201527f6f6e206973206e6f742055555053000000000000000000000000000000000000602082015250565b6000613a58602e83612bbd565b9150613a63826139fc565b604082019050919050565b60006020820190508181036000830152613a8781613a4b565b9050919050565b7f45524331393637557067726164653a20756e737570706f727465642070726f7860008201527f6961626c65555549440000000000000000000000000000000000000000000000602082015250565b6000613aea602983612bbd565b9150613af582613a8e565b604082019050919050565b60006020820190508181036000830152613b1981613add565b9050919050565b7f4f776e61626c653a2063616c6c6572206973206e6f7420746865206f776e6572600082015250565b6000613b56602083612bbd565b9150613b6182613b20565b602082019050919050565b60006020820190508181036000830152613b8581613b49565b9050919050565b7f496e697469616c697a61626c653a20636f6e7472616374206973206e6f74206960008201527f6e697469616c697a696e67000000000000000000000000000000000000000000602082015250565b6000613be8602b83612bbd565b9150613bf382613b8c565b604082019050919050565b60006020820190508181036000830152613c1781613bdb565b9050919050565b7f4552433732313a20617070726f766520746f2063616c6c657200000000000000600082015250565b6000613c54601983612bbd565b9150613c5f82613c1e565b602082019050919050565b60006020820190508181036000830152613c8381613c47565b9050919050565b7f4552433732313a207472616e7366657220746f206e6f6e20455243373231526560008201527f63656976657220696d706c656d656e7465720000000000000000000000000000602082015250565b6000613ce6603283612bbd565b9150613cf182613c8a565b604082019050919050565b60006020820190508181036000830152613d1581613cd9565b9050919050565b6000613d2782612c64565b91507fffffffffffffffffffffffffffffffffffffffffffffffffffffffffffffffff8203613d5957613d5861390c565b5b600182019050919050565b7f4e487b7100000000000000000000000000000000000000000000000000000000600052601260045260246000fd5b6000613d9e82612c64565b9150613da983612c64565b925082613db957613db8613d64565b5b828204905092915050565b6000613dcf82612c64565b9150613dda83612c64565b925082613dea57613de9613d64565b5b828206905092915050565b7f4e487b7100000000000000000000000000000000000000000000000000000000600052603260045260246000fd5b7f455243313936373a206e657720696d706c656d656e746174696f6e206973206e60008201527f6f74206120636f6e747261637400000000000000000000000000000000000000602082015250565b6000613e80602d83612bbd565b9150613e8b82613e24565b604082019050919050565b60006020820190508181036000830152613eaf81613e73565b9050919050565b60008190508160005260206000209050919050565b60006020601f8301049050919050565b600082821b905092915050565b600060088302613f187fffffffffffffffffffffffffffffffffffffffffffffffffffffffffffffffff82613edb565b613f228683613edb565b95508019841693508086168417925050509392505050565b6000613f55613f50613f4b84612c64565b6136a0565b612c64565b9050919050565b6000819050919050565b613f6f83613f3a565b613f83613f7b82613f5c565b848454613ee8565b825550505050565b600090565b613f98613f8b565b613fa3818484613f66565b505050565b5b81811015613fc757613fbc600082613f90565b600181019050613fa9565b5050565b601f82111561400c57613fdd81613eb6565b613fe684613ecb565b81016020851015613ff5578190505b61400961400185613ecb565b830182613fa8565b50505b505050565b600082821c905092915050565b600061402f60001984600802614011565b1980831691505092915050565b6000614048838361401e565b9150826002028217905092915050565b61406182612bb2565b67ffffffffffffffff81111561407a57614079612e19565b5b614084825461315c565b61408f828285613fcb565b600060209050601f8311600181146140c257600084156140b0578287015190505b6140ba858261403c565b865550614122565b601f1984166140d086613eb6565b60005b828110156140f8578489015182556001820191506020850194506020810190506140d3565b868310156141155784890151614111601f89168261401e565b8355505b6001600288020188555050505b505050505050565b7f5061757361626c653a2070617573656400000000000000000000000000000000600082015250565b6000614160601083612bbd565b915061416b8261412a565b602082019050919050565b6000602082019050818103600083015261418f81614153565b9050919050565b600081519050919050565b600082825260208201905092915050565b60006141bd82614196565b6141c781856141a1565b93506141d7818560208601612bce565b6141e081612bf8565b840191505092915050565b60006080820190506142006000830187612cf9565b61420d6020830186612cf9565b61421a6040830185612fd4565b818103606083015261422c81846141b2565b905095945050505050565b60008151905061424681612b23565b92915050565b60006020828403121561426257614261612aed565b5b600061427084828501614237565b91505092915050565b7f5061757361626c653a206e6f7420706175736564000000000000000000000000600082015250565b60006142af601483612bbd565b91506142ba82614279565b602082019050919050565b600060208201905081810360008301526142de816142a2565b9050919050565b7f416464726573733a2064656c65676174652063616c6c20746f206e6f6e2d636f60008201527f6e74726163740000000000000000000000000000000000000000000000000000602082015250565b6000614341602683612bbd565b915061434c826142e5565b604082019050919050565b6000602082019050818103600083015261437081614334565b9050919050565b600081905092915050565b600061438d82614196565b6143978185614377565b93506143a7818560208601612bce565b80840191505092915050565b60006143bf8284614382565b915081905092915050565b7f4552433732313a206d696e7420746f20746865207a65726f2061646472657373600082015250565b6000614400602083612bbd565b915061440b826143ca565b602082019050919050565b6000602082019050818103600083015261442f816143f3565b9050919050565b7f4552433732313a20746f6b656e20616c7265616479206d696e74656400000000600082015250565b600061446c601c83612bbd565b915061447782614436565b602082019050919050565b6000602082019050818103600083015261449b8161445f565b905091905056fe416464726573733a206c6f772d6c6576656c2064656c65676174652063616c6c206661696c6564a2646970667358221220bb49360b897ef7851ddc78e37f7fea671d4cce31ce23f5b32fc8434b8e55ec4864736f6c63430008110033",
  "immutableReferences": {
    "702": [
      {
        "length": 32,
        "start": 2322
      },
      {
        "length": 32,
        "start": 2464
      },
      {
        "length": 32,
        "start": 2878
      },
      {
        "length": 32,
        "start": 3020
      },
      {
        "length": 32,
        "start": 3196
      }
    ]
  },
  "source": "// SPDX-License-Identifier: MIT\r\npragma solidity ^0.8.4;\r\n\r\nimport \"@openzeppelin/contracts-upgradeable/token/ERC721/ERC721Upgradeable.sol\";\r\nimport \"@openzeppelin/contracts-upgradeable/security/PausableUpgradeable.sol\";\r\nimport \"@openzeppelin/contracts-upgradeable/access/OwnableUpgradeable.sol\";\r\nimport \"@openzeppelin/contracts-upgradeable/token/ERC721/extensions/ERC721BurnableUpgradeable.sol\";\r\nimport \"@openzeppelin/contracts-upgradeable/proxy/utils/Initializable.sol\";\r\nimport \"@openzeppelin/contracts-upgradeable/proxy/utils/UUPSUpgradeable.sol\";\r\nimport \"@openzeppelin/contracts-upgradeable/utils/CountersUpgradeable.sol\";\r\n\r\n// UUPSUpgradeable ERC721 token\r\ncontract LeeChiaHao721 is\r\n    Initializable,\r\n    ERC721Upgradeable,\r\n    PausableUpgradeable,\r\n    OwnableUpgradeable,\r\n    ERC721BurnableUpgradeable,\r\n    UUPSUpgradeable\r\n{\r\n    using CountersUpgradeable for CountersUpgradeable.Counter;\r\n\r\n    CountersUpgradeable.Counter private currentTokenId;\r\n\r\n    /// @custom:oz-upgrades-unsafe-allow constructor\r\n    constructor() {\r\n        _disableInitializers();\r\n    }\r\n\r\n    function initialize() public initializer {\r\n        __ERC721_init(\"LeeChiaHao\", \"LCH\");\r\n        __Pausable_init();\r\n        __Ownable_init();\r\n        __ERC721Burnable_init();\r\n        __UUPSUpgradeable_init();\r\n    }\r\n\r\n    // only creator of this contract is authorized to pause and unpause the functions\r\n    function pause() public onlyOwner {\r\n        _pause();\r\n    }\r\n\r\n    function unPause() public onlyOwner {\r\n        _unpause();\r\n    }\r\n\r\n    // auto increment token ID\r\n    function safeMint(address to) public {\r\n        uint256 tokenId = currentTokenId.current();\r\n        currentTokenId.increment();\r\n        _safeMint(to, tokenId);\r\n    }\r\n\r\n    function getCounter() public view returns (uint256) {\r\n        return currentTokenId.current();\r\n    }\r\n\r\n    function _beforeTokenTransfer(\r\n        address from,\r\n        address to,\r\n        uint256 tokenId\r\n    ) internal override whenNotPaused {\r\n        super._beforeTokenTransfer(from, to, tokenId);\r\n    }\r\n\r\n    function _authorizeUpgrade(address newImplementation)\r\n        internal\r\n        override\r\n        onlyOwner\r\n    {}\r\n}\r\n",
  "sourcePath": "D:\\MMU\\First Job Preparation\\PundiX\\firstTest\\contracts\\LeeChiaHao721.sol",
  "compiler": {
    "name": "solc",
    "version": "0.8.17+commit.8df45f5f.Emscripten.clang"
  },
  "schemaVersion": "3.4.3",
  "updatedAt": "2022-09-11T09:40:11.881Z",
  "networkType": "ethereum",
  "devdoc": {
    "kind": "dev",
    "methods": {
      "approve(address,uint256)": {
        "details": "See {IERC721-approve}."
      },
      "balanceOf(address)": {
        "details": "See {IERC721-balanceOf}."
      },
      "burn(uint256)": {
        "details": "Burns `tokenId`. See {ERC721-_burn}. Requirements: - The caller must own `tokenId` or be an approved operator."
      },
      "constructor": {
        "custom:oz-upgrades-unsafe-allow": "constructor"
      },
      "getApproved(uint256)": {
        "details": "See {IERC721-getApproved}."
      },
      "isApprovedForAll(address,address)": {
        "details": "See {IERC721-isApprovedForAll}."
      },
      "name()": {
        "details": "See {IERC721Metadata-name}."
      },
      "owner()": {
        "details": "Returns the address of the current owner."
      },
      "ownerOf(uint256)": {
        "details": "See {IERC721-ownerOf}."
      },
      "paused()": {
        "details": "Returns true if the contract is paused, and false otherwise."
      },
      "proxiableUUID()": {
        "details": "Implementation of the ERC1822 {proxiableUUID} function. This returns the storage slot used by the implementation. It is used to validate that the this implementation remains valid after an upgrade. IMPORTANT: A proxy pointing at a proxiable contract should not be considered proxiable itself, because this risks bricking a proxy that upgrades to it, by delegating to itself until out of gas. Thus it is critical that this function revert if invoked through a proxy. This is guaranteed by the `notDelegated` modifier."
      },
      "renounceOwnership()": {
        "details": "Leaves the contract without owner. It will not be possible to call `onlyOwner` functions anymore. Can only be called by the current owner. NOTE: Renouncing ownership will leave the contract without an owner, thereby removing any functionality that is only available to the owner."
      },
      "safeTransferFrom(address,address,uint256)": {
        "details": "See {IERC721-safeTransferFrom}."
      },
      "safeTransferFrom(address,address,uint256,bytes)": {
        "details": "See {IERC721-safeTransferFrom}."
      },
      "setApprovalForAll(address,bool)": {
        "details": "See {IERC721-setApprovalForAll}."
      },
      "supportsInterface(bytes4)": {
        "details": "See {IERC165-supportsInterface}."
      },
      "symbol()": {
        "details": "See {IERC721Metadata-symbol}."
      },
      "tokenURI(uint256)": {
        "details": "See {IERC721Metadata-tokenURI}."
      },
      "transferFrom(address,address,uint256)": {
        "details": "See {IERC721-transferFrom}."
      },
      "transferOwnership(address)": {
        "details": "Transfers ownership of the contract to a new account (`newOwner`). Can only be called by the current owner."
      },
      "upgradeTo(address)": {
        "details": "Upgrade the implementation of the proxy to `newImplementation`. Calls {_authorizeUpgrade}. Emits an {Upgraded} event."
      },
      "upgradeToAndCall(address,bytes)": {
        "details": "Upgrade the implementation of the proxy to `newImplementation`, and subsequently execute the function call encoded in `data`. Calls {_authorizeUpgrade}. Emits an {Upgraded} event."
      }
    },
    "version": 1
  },
  "userdoc": {
    "kind": "user",
    "methods": {},
    "version": 1
  }
}