{
  "contractName": "LeeChiaHao20",
  "abi": [
    {
      "inputs": [],
      "stateMutability": "nonpayable",
      "type": "constructor"
    },
    {
      "anonymous": false,
      "inputs": [
        {
          "indexed": false,
          "internalType": "address",
          "name": "previousAdmin",
          "type": "address"
        },
        {
          "indexed": false,
          "internalType": "address",
          "name": "newAdmin",
          "type": "address"
        }
      ],
      "name": "AdminChanged",
      "type": "event"
    },
    {
      "anonymous": false,
      "inputs": [
        {
          "indexed": true,
          "internalType": "address",
          "name": "owner",
          "type": "address"
        },
        {
          "indexed": true,
          "internalType": "address",
          "name": "spender",
          "type": "address"
        },
        {
          "indexed": false,
          "internalType": "uint256",
          "name": "value",
          "type": "uint256"
        }
      ],
      "name": "Approval",
      "type": "event"
    },
    {
      "anonymous": false,
      "inputs": [
        {
          "indexed": true,
          "internalType": "address",
          "name": "beacon",
          "type": "address"
        }
      ],
      "name": "BeaconUpgraded",
      "type": "event"
    },
    {
      "anonymous": false,
      "inputs": [
        {
          "indexed": false,
          "internalType": "uint8",
          "name": "version",
          "type": "uint8"
        }
      ],
      "name": "Initialized",
      "type": "event"
    },
    {
      "anonymous": false,
      "inputs": [
        {
          "indexed": true,
          "internalType": "address",
          "name": "previousOwner",
          "type": "address"
        },
        {
          "indexed": true,
          "internalType": "address",
          "name": "newOwner",
          "type": "address"
        }
      ],
      "name": "OwnershipTransferred",
      "type": "event"
    },
    {
      "anonymous": false,
      "inputs": [
        {
          "indexed": true,
          "internalType": "address",
          "name": "from",
          "type": "address"
        },
        {
          "indexed": true,
          "internalType": "address",
          "name": "to",
          "type": "address"
        },
        {
          "indexed": false,
          "internalType": "uint256",
          "name": "value",
          "type": "uint256"
        }
      ],
      "name": "Transfer",
      "type": "event"
    },
    {
      "anonymous": false,
      "inputs": [
        {
          "indexed": true,
          "internalType": "address",
          "name": "implementation",
          "type": "address"
        }
      ],
      "name": "Upgraded",
      "type": "event"
    },
    {
      "inputs": [
        {
          "internalType": "address",
          "name": "owner",
          "type": "address"
        },
        {
          "internalType": "address",
          "name": "spender",
          "type": "address"
        }
      ],
      "name": "allowance",
      "outputs": [
        {
          "internalType": "uint256",
          "name": "",
          "type": "uint256"
        }
      ],
      "stateMutability": "view",
      "type": "function",
      "constant": true
    },
    {
      "inputs": [
        {
          "internalType": "address",
          "name": "spender",
          "type": "address"
        },
        {
          "internalType": "uint256",
          "name": "amount",
          "type": "uint256"
        }
      ],
      "name": "approve",
      "outputs": [
        {
          "internalType": "bool",
          "name": "",
          "type": "bool"
        }
      ],
      "stateMutability": "nonpayable",
      "type": "function"
    },
    {
      "inputs": [
        {
          "internalType": "address",
          "name": "account",
          "type": "address"
        }
      ],
      "name": "balanceOf",
      "outputs": [
        {
          "internalType": "uint256",
          "name": "",
          "type": "uint256"
        }
      ],
      "stateMutability": "view",
      "type": "function",
      "constant": true
    },
    {
      "inputs": [
        {
          "internalType": "uint256",
          "name": "amount",
          "type": "uint256"
        }
      ],
      "name": "burn",
      "outputs": [],
      "stateMutability": "nonpayable",
      "type": "function"
    },
    {
      "inputs": [
        {
          "internalType": "address",
          "name": "account",
          "type": "address"
        },
        {
          "internalType": "uint256",
          "name": "amount",
          "type": "uint256"
        }
      ],
      "name": "burnFrom",
      "outputs": [],
      "stateMutability": "nonpayable",
      "type": "function"
    },
    {
      "inputs": [],
      "name": "cap",
      "outputs": [
        {
          "internalType": "uint256",
          "name": "",
          "type": "uint256"
        }
      ],
      "stateMutability": "view",
      "type": "function",
      "constant": true
    },
    {
      "inputs": [],
      "name": "decimals",
      "outputs": [
        {
          "internalType": "uint8",
          "name": "",
          "type": "uint8"
        }
      ],
      "stateMutability": "view",
      "type": "function",
      "constant": true
    },
    {
      "inputs": [
        {
          "internalType": "address",
          "name": "spender",
          "type": "address"
        },
        {
          "internalType": "uint256",
          "name": "subtractedValue",
          "type": "uint256"
        }
      ],
      "name": "decreaseAllowance",
      "outputs": [
        {
          "internalType": "bool",
          "name": "",
          "type": "bool"
        }
      ],
      "stateMutability": "nonpayable",
      "type": "function"
    },
    {
      "inputs": [
        {
          "internalType": "address",
          "name": "spender",
          "type": "address"
        },
        {
          "internalType": "uint256",
          "name": "addedValue",
          "type": "uint256"
        }
      ],
      "name": "increaseAllowance",
      "outputs": [
        {
          "internalType": "bool",
          "name": "",
          "type": "bool"
        }
      ],
      "stateMutability": "nonpayable",
      "type": "function"
    },
    {
      "inputs": [],
      "name": "name",
      "outputs": [
        {
          "internalType": "string",
          "name": "",
          "type": "string"
        }
      ],
      "stateMutability": "view",
      "type": "function",
      "constant": true
    },
    {
      "inputs": [],
      "name": "owner",
      "outputs": [
        {
          "internalType": "address",
          "name": "",
          "type": "address"
        }
      ],
      "stateMutability": "view",
      "type": "function",
      "constant": true
    },
    {
      "inputs": [],
      "name": "proxiableUUID",
      "outputs": [
        {
          "internalType": "bytes32",
          "name": "",
          "type": "bytes32"
        }
      ],
      "stateMutability": "view",
      "type": "function",
      "constant": true
    },
    {
      "inputs": [],
      "name": "renounceOwnership",
      "outputs": [],
      "stateMutability": "nonpayable",
      "type": "function"
    },
    {
      "inputs": [],
      "name": "symbol",
      "outputs": [
        {
          "internalType": "string",
          "name": "",
          "type": "string"
        }
      ],
      "stateMutability": "view",
      "type": "function",
      "constant": true
    },
    {
      "inputs": [],
      "name": "totalSupply",
      "outputs": [
        {
          "internalType": "uint256",
          "name": "",
          "type": "uint256"
        }
      ],
      "stateMutability": "view",
      "type": "function",
      "constant": true
    },
    {
      "inputs": [
        {
          "internalType": "address",
          "name": "newOwner",
          "type": "address"
        }
      ],
      "name": "transferOwnership",
      "outputs": [],
      "stateMutability": "nonpayable",
      "type": "function"
    },
    {
      "inputs": [
        {
          "internalType": "address",
          "name": "newImplementation",
          "type": "address"
        }
      ],
      "name": "upgradeTo",
      "outputs": [],
      "stateMutability": "nonpayable",
      "type": "function"
    },
    {
      "inputs": [
        {
          "internalType": "address",
          "name": "newImplementation",
          "type": "address"
        },
        {
          "internalType": "bytes",
          "name": "data",
          "type": "bytes"
        }
      ],
      "name": "upgradeToAndCall",
      "outputs": [],
      "stateMutability": "payable",
      "type": "function",
      "payable": true
    },
    {
      "inputs": [],
      "name": "initialize",
      "outputs": [],
      "stateMutability": "nonpayable",
      "type": "function"
    },
    {
      "inputs": [
        {
          "internalType": "address",
          "name": "to",
          "type": "address"
        },
        {
          "internalType": "uint256",
          "name": "amount",
          "type": "uint256"
        }
      ],
      "name": "mint",
      "outputs": [],
      "stateMutability": "nonpayable",
      "type": "function"
    },
    {
      "inputs": [
        {
          "internalType": "address",
          "name": "to",
          "type": "address"
        },
        {
          "internalType": "uint256",
          "name": "amount",
          "type": "uint256"
        }
      ],
      "name": "transfer",
      "outputs": [
        {
          "internalType": "bool",
          "name": "",
          "type": "bool"
        }
      ],
      "stateMutability": "nonpayable",
      "type": "function"
    },
    {
      "inputs": [
        {
          "internalType": "address",
          "name": "from",
          "type": "address"
        },
        {
          "internalType": "address",
          "name": "to",
          "type": "address"
        },
        {
          "internalType": "uint256",
          "name": "amount",
          "type": "uint256"
        }
      ],
      "name": "transferFrom",
      "outputs": [
        {
          "internalType": "bool",
          "name": "",
          "type": "bool"
        }
      ],
      "stateMutability": "nonpayable",
      "type": "function"
    }
  ],
  "bytecode": "0x60a06040523073ffffffffffffffffffffffffffffffffffffffff1660809073ffffffffffffffffffffffffffffffffffffffff168152503480156200004457600080fd5b50620000556200005b60201b60201c565b62000206565b600060019054906101000a900460ff1615620000ae576040517f08c379a0000000000000000000000000000000000000000000000000000000008152600401620000a590620001a9565b60405180910390fd5b60ff801660008054906101000a900460ff1660ff161015620001205760ff6000806101000a81548160ff021916908360ff1602179055507f7f26b83ff96e1f2b6a682f133852f6798a09c465da95921460cefb384740249860ff604051620001179190620001e9565b60405180910390a15b565b600082825260208201905092915050565b7f496e697469616c697a61626c653a20636f6e747261637420697320696e69746960008201527f616c697a696e6700000000000000000000000000000000000000000000000000602082015250565b60006200019160278362000122565b91506200019e8262000133565b604082019050919050565b60006020820190508181036000830152620001c48162000182565b9050919050565b600060ff82169050919050565b620001e381620001cb565b82525050565b6000602082019050620002006000830184620001d8565b92915050565b6080516139496200023e6000396000818161063d015281816106cb01528181610836015281816108c4015261097401526139496000f3fe6080604052600436106101355760003560e01c806352d1902d116100ab5780638da5cb5b1161006f5780638da5cb5b146103f357806395d89b411461041e578063a457c2d714610449578063a9059cbb14610486578063dd62ed3e146104c3578063f2fde38b1461050057610135565b806352d1902d1461033457806370a082311461035f578063715018a61461039c57806379cc6790146103b35780638129fc1c146103dc57610135565b8063355274ea116100fd578063355274ea146102355780633659cfe614610260578063395093511461028957806340c10f19146102c657806342966c68146102ef5780634f1ef2861461031857610135565b806306fdde031461013a578063095ea7b31461016557806318160ddd146101a257806323b872dd146101cd578063313ce5671461020a575b600080fd5b34801561014657600080fd5b5061014f610529565b60405161015c919061216d565b60405180910390f35b34801561017157600080fd5b5061018c60048036038101906101879190612237565b6105bb565b6040516101999190612292565b60405180910390f35b3480156101ae57600080fd5b506101b76105de565b6040516101c491906122bc565b60405180910390f35b3480156101d957600080fd5b506101f460048036038101906101ef91906122d7565b6105e8565b6040516102019190612292565b60405180910390f35b34801561021657600080fd5b5061021f610628565b60405161022c9190612346565b60405180910390f35b34801561024157600080fd5b5061024a610631565b60405161025791906122bc565b60405180910390f35b34801561026c57600080fd5b5061028760048036038101906102829190612361565b61063b565b005b34801561029557600080fd5b506102b060048036038101906102ab9190612237565b6107c3565b6040516102bd9190612292565b60405180910390f35b3480156102d257600080fd5b506102ed60048036038101906102e89190612237565b6107fa565b005b3480156102fb57600080fd5b506103166004803603810190610311919061238e565b610820565b005b610332600480360381019061032d91906124f0565b610834565b005b34801561034057600080fd5b50610349610970565b6040516103569190612565565b60405180910390f35b34801561036b57600080fd5b5061038660048036038101906103819190612361565b610a29565b60405161039391906122bc565b60405180910390f35b3480156103a857600080fd5b506103b1610a72565b005b3480156103bf57600080fd5b506103da60048036038101906103d59190612237565b610a86565b005b3480156103e857600080fd5b506103f1610aa6565b005b3480156103ff57600080fd5b50610408610c8c565b604051610415919061258f565b60405180910390f35b34801561042a57600080fd5b50610433610cb6565b604051610440919061216d565b60405180910390f35b34801561045557600080fd5b50610470600480360381019061046b9190612237565b610d48565b60405161047d9190612292565b60405180910390f35b34801561049257600080fd5b506104ad60048036038101906104a89190612237565b610dbf565b6040516104ba9190612292565b60405180910390f35b3480156104cf57600080fd5b506104ea60048036038101906104e591906125aa565b610dfd565b6040516104f791906122bc565b60405180910390f35b34801561050c57600080fd5b5061052760048036038101906105229190612361565b610e84565b005b60606036805461053890612619565b80601f016020809104026020016040519081016040528092919081815260200182805461056490612619565b80156105b15780601f10610586576101008083540402835291602001916105b1565b820191906000526020600020905b81548152906001019060200180831161059457829003601f168201915b5050505050905090565b6000806105c6610f07565b90506105d3818585610f0f565b600191505092915050565b6000603554905090565b6000806012600a6105f991906127ac565b8361060491906127f7565b90506106118585836110d8565b5061061c8482611107565b60019150509392505050565b60006012905090565b6000606554905090565b7f000000000000000000000000000000000000000000000000000000000000000073ffffffffffffffffffffffffffffffffffffffff163073ffffffffffffffffffffffffffffffffffffffff16036106c9576040517f08c379a00000000000000000000000000000000000000000000000000000000081526004016106c0906128ab565b60405180910390fd5b7f000000000000000000000000000000000000000000000000000000000000000073ffffffffffffffffffffffffffffffffffffffff16610708611127565b73ffffffffffffffffffffffffffffffffffffffff161461075e576040517f08c379a00000000000000000000000000000000000000000000000000000000081526004016107559061293d565b60405180910390fd5b6107678161117e565b6107c081600067ffffffffffffffff811115610786576107856123c5565b5b6040519080825280601f01601f1916602001820160405280156107b85781602001600182028036833780820191505090505b506000611189565b50565b6000806107ce610f07565b90506107ef8185856107e08589610dfd565b6107ea919061295d565b610f0f565b600191505092915050565b61081c826012600a61080c91906127ac565b8361081791906127f7565b6112f7565b5050565b61083161082b610f07565b82611305565b50565b7f000000000000000000000000000000000000000000000000000000000000000073ffffffffffffffffffffffffffffffffffffffff163073ffffffffffffffffffffffffffffffffffffffff16036108c2576040517f08c379a00000000000000000000000000000000000000000000000000000000081526004016108b9906128ab565b60405180910390fd5b7f000000000000000000000000000000000000000000000000000000000000000073ffffffffffffffffffffffffffffffffffffffff16610901611127565b73ffffffffffffffffffffffffffffffffffffffff1614610957576040517f08c379a000000000000000000000000000000000000000000000000000000000815260040161094e9061293d565b60405180910390fd5b6109608261117e565b61096c82826001611189565b5050565b60007f000000000000000000000000000000000000000000000000000000000000000073ffffffffffffffffffffffffffffffffffffffff163073ffffffffffffffffffffffffffffffffffffffff1614610a00576040517f08c379a00000000000000000000000000000000000000000000000000000000081526004016109f790612a03565b60405180910390fd5b7f360894a13ba1a3210667c828492db98dca3e2076cc3735a920a3ca505d382bbc60001b905090565b6000603360008373ffffffffffffffffffffffffffffffffffffffff1673ffffffffffffffffffffffffffffffffffffffff168152602001908152602001600020549050919050565b610a7a6114dd565b610a84600061155b565b565b610a9882610a92610f07565b83611621565b610aa28282611305565b5050565b60008060019054906101000a900460ff16159050808015610ad75750600160008054906101000a900460ff1660ff16105b80610b045750610ae6306116ad565b158015610b035750600160008054906101000a900460ff1660ff16145b5b610b43576040517f08c379a0000000000000000000000000000000000000000000000000000000008152600401610b3a90612a95565b60405180910390fd5b60016000806101000a81548160ff021916908360ff1602179055508015610b80576001600060016101000a81548160ff0219169083151502179055505b610bf46040518060400160405280600a81526020017f4c65654368696148616f000000000000000000000000000000000000000000008152506040518060400160405280600381526020017f4c434800000000000000000000000000000000000000000000000000000000008152506116d0565b610c186012600a610c0591906127ac565b620f4240610c1391906127f7565b61172d565b610c20611788565b610c286117e1565b610c30611832565b8015610c895760008060016101000a81548160ff0219169083151502179055507f7f26b83ff96e1f2b6a682f133852f6798a09c465da95921460cefb38474024986001604051610c809190612afa565b60405180910390a15b50565b600060ca60009054906101000a900473ffffffffffffffffffffffffffffffffffffffff16905090565b606060378054610cc590612619565b80601f0160208091040260200160405190810160405280929190818152602001828054610cf190612619565b8015610d3e5780601f10610d1357610100808354040283529160200191610d3e565b820191906000526020600020905b815481529060010190602001808311610d2157829003601f168201915b5050505050905090565b600080610d53610f07565b90506000610d618286610dfd565b905083811015610da6576040517f08c379a0000000000000000000000000000000000000000000000000000000008152600401610d9d90612b87565b60405180910390fd5b610db38286868403610f0f565b60019250505092915050565b6000806012600a610dd091906127ac565b83610ddb91906127f7565b9050610de78482611861565b50610df28482611107565b600191505092915050565b6000603460008473ffffffffffffffffffffffffffffffffffffffff1673ffffffffffffffffffffffffffffffffffffffff16815260200190815260200160002060008373ffffffffffffffffffffffffffffffffffffffff1673ffffffffffffffffffffffffffffffffffffffff16815260200190815260200160002054905092915050565b610e8c6114dd565b600073ffffffffffffffffffffffffffffffffffffffff168173ffffffffffffffffffffffffffffffffffffffff1603610efb576040517f08c379a0000000000000000000000000000000000000000000000000000000008152600401610ef290612c19565b60405180910390fd5b610f048161155b565b50565b600033905090565b600073ffffffffffffffffffffffffffffffffffffffff168373ffffffffffffffffffffffffffffffffffffffff1603610f7e576040517f08c379a0000000000000000000000000000000000000000000000000000000008152600401610f7590612cab565b60405180910390fd5b600073ffffffffffffffffffffffffffffffffffffffff168273ffffffffffffffffffffffffffffffffffffffff1603610fed576040517f08c379a0000000000000000000000000000000000000000000000000000000008152600401610fe490612d3d565b60405180910390fd5b80603460008573ffffffffffffffffffffffffffffffffffffffff1673ffffffffffffffffffffffffffffffffffffffff16815260200190815260200160002060008473ffffffffffffffffffffffffffffffffffffffff1673ffffffffffffffffffffffffffffffffffffffff168152602001908152602001600020819055508173ffffffffffffffffffffffffffffffffffffffff168373ffffffffffffffffffffffffffffffffffffffff167f8c5be1e5ebec7d5bd14f71427d1e84f3dd0314c0f7b2291e5b200ac8c7c3b925836040516110cb91906122bc565b60405180910390a3505050565b6000806110e3610f07565b90506110f0858285611621565b6110fb858585611884565b60019150509392505050565b6000600a826111169190612d8c565b90506111228382611305565b505050565b60006111557f360894a13ba1a3210667c828492db98dca3e2076cc3735a920a3ca505d382bbc60001b611b06565b60000160009054906101000a900473ffffffffffffffffffffffffffffffffffffffff16905090565b6111866114dd565b50565b6111b57f4910fdfa16fed3260ed0e7147f7cc6da11a60208b5b9406d12a635614ffd914360001b611b10565b60000160009054906101000a900460ff16156111d9576111d483611b1a565b6112f2565b8273ffffffffffffffffffffffffffffffffffffffff166352d1902d6040518163ffffffff1660e01b8152600401602060405180830381865afa92505050801561124157506040513d601f19601f8201168201806040525081019061123e9190612de9565b60015b611280576040517f08c379a000000000000000000000000000000000000000000000000000000000815260040161127790612e88565b60405180910390fd5b7f360894a13ba1a3210667c828492db98dca3e2076cc3735a920a3ca505d382bbc60001b81146112e5576040517f08c379a00000000000000000000000000000000000000000000000000000000081526004016112dc90612f1a565b60405180910390fd5b506112f1838383611bd3565b5b505050565b6113018282611bff565b5050565b600073ffffffffffffffffffffffffffffffffffffffff168273ffffffffffffffffffffffffffffffffffffffff1603611374576040517f08c379a000000000000000000000000000000000000000000000000000000000815260040161136b90612fac565b60405180910390fd5b61138082600083611c69565b6000603360008473ffffffffffffffffffffffffffffffffffffffff1673ffffffffffffffffffffffffffffffffffffffff16815260200190815260200160002054905081811015611407576040517f08c379a00000000000000000000000000000000000000000000000000000000081526004016113fe9061303e565b60405180910390fd5b818103603360008573ffffffffffffffffffffffffffffffffffffffff1673ffffffffffffffffffffffffffffffffffffffff16815260200190815260200160002081905550816035600082825461145f919061305e565b92505081905550600073ffffffffffffffffffffffffffffffffffffffff168373ffffffffffffffffffffffffffffffffffffffff167fddf252ad1be2c89b69c2b068fc378daa952ba7f163c4a11628f55a4df523b3ef846040516114c491906122bc565b60405180910390a36114d883600084611c6e565b505050565b6114e5610f07565b73ffffffffffffffffffffffffffffffffffffffff16611503610c8c565b73ffffffffffffffffffffffffffffffffffffffff1614611559576040517f08c379a0000000000000000000000000000000000000000000000000000000008152600401611550906130de565b60405180910390fd5b565b600060ca60009054906101000a900473ffffffffffffffffffffffffffffffffffffffff1690508160ca60006101000a81548173ffffffffffffffffffffffffffffffffffffffff021916908373ffffffffffffffffffffffffffffffffffffffff1602179055508173ffffffffffffffffffffffffffffffffffffffff168173ffffffffffffffffffffffffffffffffffffffff167f8be0079c531659141344cd1fd0a4f28419497f9722a3daafe3b4186f6b6457e060405160405180910390a35050565b600061162d8484610dfd565b90507fffffffffffffffffffffffffffffffffffffffffffffffffffffffffffffffff81146116a75781811015611699576040517f08c379a00000000000000000000000000000000000000000000000000000000081526004016116909061314a565b60405180910390fd5b6116a68484848403610f0f565b5b50505050565b6000808273ffffffffffffffffffffffffffffffffffffffff163b119050919050565b600060019054906101000a900460ff1661171f576040517f08c379a0000000000000000000000000000000000000000000000000000000008152600401611716906131dc565b60405180910390fd5b6117298282611c73565b5050565b600060019054906101000a900460ff1661177c576040517f08c379a0000000000000000000000000000000000000000000000000000000008152600401611773906131dc565b60405180910390fd5b61178581611ce6565b50565b600060019054906101000a900460ff166117d7576040517f08c379a00000000000000000000000000000000000000000000000000000000081526004016117ce906131dc565b60405180910390fd5b6117df611d82565b565b600060019054906101000a900460ff16611830576040517f08c379a0000000000000000000000000000000000000000000000000000000008152600401611827906131dc565b60405180910390fd5b565b61183a6114dd565b61185f336012600a61184c91906127ac565b620186a061185a91906127f7565b6112f7565b565b60008061186c610f07565b9050611879818585611884565b600191505092915050565b600073ffffffffffffffffffffffffffffffffffffffff168373ffffffffffffffffffffffffffffffffffffffff16036118f3576040517f08c379a00000000000000000000000000000000000000000000000000000000081526004016118ea9061326e565b60405180910390fd5b600073ffffffffffffffffffffffffffffffffffffffff168273ffffffffffffffffffffffffffffffffffffffff1603611962576040517f08c379a000000000000000000000000000000000000000000000000000000000815260040161195990613300565b60405180910390fd5b61196d838383611c69565b6000603360008573ffffffffffffffffffffffffffffffffffffffff1673ffffffffffffffffffffffffffffffffffffffff168152602001908152602001600020549050818110156119f4576040517f08c379a00000000000000000000000000000000000000000000000000000000081526004016119eb90613392565b60405180910390fd5b818103603360008673ffffffffffffffffffffffffffffffffffffffff1673ffffffffffffffffffffffffffffffffffffffff1681526020019081526020016000208190555081603360008573ffffffffffffffffffffffffffffffffffffffff1673ffffffffffffffffffffffffffffffffffffffff1681526020019081526020016000206000828254611a89919061295d565b925050819055508273ffffffffffffffffffffffffffffffffffffffff168473ffffffffffffffffffffffffffffffffffffffff167fddf252ad1be2c89b69c2b068fc378daa952ba7f163c4a11628f55a4df523b3ef84604051611aed91906122bc565b60405180910390a3611b00848484611c6e565b50505050565b6000819050919050565b6000819050919050565b611b23816116ad565b611b62576040517f08c379a0000000000000000000000000000000000000000000000000000000008152600401611b5990613424565b60405180910390fd5b80611b8f7f360894a13ba1a3210667c828492db98dca3e2076cc3735a920a3ca505d382bbc60001b611b06565b60000160006101000a81548173ffffffffffffffffffffffffffffffffffffffff021916908373ffffffffffffffffffffffffffffffffffffffff16021790555050565b611bdc83611de3565b600082511180611be95750805b15611bfa57611bf88383611e32565b505b505050565b611c07610631565b81611c106105de565b611c1a919061295d565b1115611c5b576040517f08c379a0000000000000000000000000000000000000000000000000000000008152600401611c5290613490565b60405180910390fd5b611c658282611f16565b5050565b505050565b505050565b600060019054906101000a900460ff16611cc2576040517f08c379a0000000000000000000000000000000000000000000000000000000008152600401611cb9906131dc565b60405180910390fd5b8160369081611cd19190613652565b508060379081611ce19190613652565b505050565b600060019054906101000a900460ff16611d35576040517f08c379a0000000000000000000000000000000000000000000000000000000008152600401611d2c906131dc565b60405180910390fd5b60008111611d78576040517f08c379a0000000000000000000000000000000000000000000000000000000008152600401611d6f90613770565b60405180910390fd5b8060658190555050565b600060019054906101000a900460ff16611dd1576040517f08c379a0000000000000000000000000000000000000000000000000000000008152600401611dc8906131dc565b60405180910390fd5b611de1611ddc610f07565b61155b565b565b611dec81611b1a565b8073ffffffffffffffffffffffffffffffffffffffff167fbc7cd75a20ee27fd9adebab32041f755214dbc6bffa90cc0225b39da2e5c2d3b60405160405180910390a250565b6060611e3d836116ad565b611e7c576040517f08c379a0000000000000000000000000000000000000000000000000000000008152600401611e7390613802565b60405180910390fd5b6000808473ffffffffffffffffffffffffffffffffffffffff1684604051611ea49190613869565b600060405180830381855af49150503d8060008114611edf576040519150601f19603f3d011682016040523d82523d6000602084013e611ee4565b606091505b5091509150611f0c82826040518060600160405280602781526020016138ed60279139612076565b9250505092915050565b600073ffffffffffffffffffffffffffffffffffffffff168273ffffffffffffffffffffffffffffffffffffffff1603611f85576040517f08c379a0000000000000000000000000000000000000000000000000000000008152600401611f7c906138cc565b60405180910390fd5b611f9160008383611c69565b8060356000828254611fa3919061295d565b9250508190555080603360008473ffffffffffffffffffffffffffffffffffffffff1673ffffffffffffffffffffffffffffffffffffffff1681526020019081526020016000206000828254611ff9919061295d565b925050819055508173ffffffffffffffffffffffffffffffffffffffff16600073ffffffffffffffffffffffffffffffffffffffff167fddf252ad1be2c89b69c2b068fc378daa952ba7f163c4a11628f55a4df523b3ef8360405161205e91906122bc565b60405180910390a361207260008383611c6e565b5050565b60608315612086578290506120d6565b6000835111156120995782518084602001fd5b816040517f08c379a00000000000000000000000000000000000000000000000000000000081526004016120cd919061216d565b60405180910390fd5b9392505050565b600081519050919050565b600082825260208201905092915050565b60005b838110156121175780820151818401526020810190506120fc565b60008484015250505050565b6000601f19601f8301169050919050565b600061213f826120dd565b61214981856120e8565b93506121598185602086016120f9565b61216281612123565b840191505092915050565b600060208201905081810360008301526121878184612134565b905092915050565b6000604051905090565b600080fd5b600080fd5b600073ffffffffffffffffffffffffffffffffffffffff82169050919050565b60006121ce826121a3565b9050919050565b6121de816121c3565b81146121e957600080fd5b50565b6000813590506121fb816121d5565b92915050565b6000819050919050565b61221481612201565b811461221f57600080fd5b50565b6000813590506122318161220b565b92915050565b6000806040838503121561224e5761224d612199565b5b600061225c858286016121ec565b925050602061226d85828601612222565b9150509250929050565b60008115159050919050565b61228c81612277565b82525050565b60006020820190506122a76000830184612283565b92915050565b6122b681612201565b82525050565b60006020820190506122d160008301846122ad565b92915050565b6000806000606084860312156122f0576122ef612199565b5b60006122fe868287016121ec565b935050602061230f868287016121ec565b925050604061232086828701612222565b9150509250925092565b600060ff82169050919050565b6123408161232a565b82525050565b600060208201905061235b6000830184612337565b92915050565b60006020828403121561237757612376612199565b5b6000612385848285016121ec565b91505092915050565b6000602082840312156123a4576123a3612199565b5b60006123b284828501612222565b91505092915050565b600080fd5b600080fd5b7f4e487b7100000000000000000000000000000000000000000000000000000000600052604160045260246000fd5b6123fd82612123565b810181811067ffffffffffffffff8211171561241c5761241b6123c5565b5b80604052505050565b600061242f61218f565b905061243b82826123f4565b919050565b600067ffffffffffffffff82111561245b5761245a6123c5565b5b61246482612123565b9050602081019050919050565b82818337600083830152505050565b600061249361248e84612440565b612425565b9050828152602081018484840111156124af576124ae6123c0565b5b6124ba848285612471565b509392505050565b600082601f8301126124d7576124d66123bb565b5b81356124e7848260208601612480565b91505092915050565b6000806040838503121561250757612506612199565b5b6000612515858286016121ec565b925050602083013567ffffffffffffffff8111156125365761253561219e565b5b612542858286016124c2565b9150509250929050565b6000819050919050565b61255f8161254c565b82525050565b600060208201905061257a6000830184612556565b92915050565b612589816121c3565b82525050565b60006020820190506125a46000830184612580565b92915050565b600080604083850312156125c1576125c0612199565b5b60006125cf858286016121ec565b92505060206125e0858286016121ec565b9150509250929050565b7f4e487b7100000000000000000000000000000000000000000000000000000000600052602260045260246000fd5b6000600282049050600182168061263157607f821691505b602082108103612644576126436125ea565b5b50919050565b7f4e487b7100000000000000000000000000000000000000000000000000000000600052601160045260246000fd5b60008160011c9050919050565b6000808291508390505b60018511156126d0578086048111156126ac576126ab61264a565b5b60018516156126bb5780820291505b80810290506126c985612679565b9450612690565b94509492505050565b6000826126e957600190506127a5565b816126f757600090506127a5565b816001811461270d576002811461271757612746565b60019150506127a5565b60ff8411156127295761272861264a565b5b8360020a9150848211156127405761273f61264a565b5b506127a5565b5060208310610133831016604e8410600b841016171561277b5782820a9050838111156127765761277561264a565b5b6127a5565b6127888484846001612686565b9250905081840481111561279f5761279e61264a565b5b81810290505b9392505050565b60006127b782612201565b91506127c283612201565b92506127ef7fffffffffffffffffffffffffffffffffffffffffffffffffffffffffffffffff84846126d9565b905092915050565b600061280282612201565b915061280d83612201565b925082820261281b81612201565b915082820484148315176128325761283161264a565b5b5092915050565b7f46756e6374696f6e206d7573742062652063616c6c6564207468726f7567682060008201527f64656c656761746563616c6c0000000000000000000000000000000000000000602082015250565b6000612895602c836120e8565b91506128a082612839565b604082019050919050565b600060208201905081810360008301526128c481612888565b9050919050565b7f46756e6374696f6e206d7573742062652063616c6c6564207468726f7567682060008201527f6163746976652070726f78790000000000000000000000000000000000000000602082015250565b6000612927602c836120e8565b9150612932826128cb565b604082019050919050565b600060208201905081810360008301526129568161291a565b9050919050565b600061296882612201565b915061297383612201565b925082820190508082111561298b5761298a61264a565b5b92915050565b7f555550535570677261646561626c653a206d757374206e6f742062652063616c60008201527f6c6564207468726f7567682064656c656761746563616c6c0000000000000000602082015250565b60006129ed6038836120e8565b91506129f882612991565b604082019050919050565b60006020820190508181036000830152612a1c816129e0565b9050919050565b7f496e697469616c697a61626c653a20636f6e747261637420697320616c72656160008201527f647920696e697469616c697a6564000000000000000000000000000000000000602082015250565b6000612a7f602e836120e8565b9150612a8a82612a23565b604082019050919050565b60006020820190508181036000830152612aae81612a72565b9050919050565b6000819050919050565b6000819050919050565b6000612ae4612adf612ada84612ab5565b612abf565b61232a565b9050919050565b612af481612ac9565b82525050565b6000602082019050612b0f6000830184612aeb565b92915050565b7f45524332303a2064656372656173656420616c6c6f77616e63652062656c6f7760008201527f207a65726f000000000000000000000000000000000000000000000000000000602082015250565b6000612b716025836120e8565b9150612b7c82612b15565b604082019050919050565b60006020820190508181036000830152612ba081612b64565b9050919050565b7f4f776e61626c653a206e6577206f776e657220697320746865207a65726f206160008201527f6464726573730000000000000000000000000000000000000000000000000000602082015250565b6000612c036026836120e8565b9150612c0e82612ba7565b604082019050919050565b60006020820190508181036000830152612c3281612bf6565b9050919050565b7f45524332303a20617070726f76652066726f6d20746865207a65726f2061646460008201527f7265737300000000000000000000000000000000000000000000000000000000602082015250565b6000612c956024836120e8565b9150612ca082612c39565b604082019050919050565b60006020820190508181036000830152612cc481612c88565b9050919050565b7f45524332303a20617070726f766520746f20746865207a65726f20616464726560008201527f7373000000000000000000000000000000000000000000000000000000000000602082015250565b6000612d276022836120e8565b9150612d3282612ccb565b604082019050919050565b60006020820190508181036000830152612d5681612d1a565b9050919050565b7f4e487b7100000000000000000000000000000000000000000000000000000000600052601260045260246000fd5b6000612d9782612201565b9150612da283612201565b925082612db257612db1612d5d565b5b828204905092915050565b612dc68161254c565b8114612dd157600080fd5b50565b600081519050612de381612dbd565b92915050565b600060208284031215612dff57612dfe612199565b5b6000612e0d84828501612dd4565b91505092915050565b7f45524331393637557067726164653a206e657720696d706c656d656e7461746960008201527f6f6e206973206e6f742055555053000000000000000000000000000000000000602082015250565b6000612e72602e836120e8565b9150612e7d82612e16565b604082019050919050565b60006020820190508181036000830152612ea181612e65565b9050919050565b7f45524331393637557067726164653a20756e737570706f727465642070726f7860008201527f6961626c65555549440000000000000000000000000000000000000000000000602082015250565b6000612f046029836120e8565b9150612f0f82612ea8565b604082019050919050565b60006020820190508181036000830152612f3381612ef7565b9050919050565b7f45524332303a206275726e2066726f6d20746865207a65726f2061646472657360008201527f7300000000000000000000000000000000000000000000000000000000000000602082015250565b6000612f966021836120e8565b9150612fa182612f3a565b604082019050919050565b60006020820190508181036000830152612fc581612f89565b9050919050565b7f45524332303a206275726e20616d6f756e7420657863656564732062616c616e60008201527f6365000000000000000000000000000000000000000000000000000000000000602082015250565b60006130286022836120e8565b915061303382612fcc565b604082019050919050565b600060208201905081810360008301526130578161301b565b9050919050565b600061306982612201565b915061307483612201565b925082820390508181111561308c5761308b61264a565b5b92915050565b7f4f776e61626c653a2063616c6c6572206973206e6f7420746865206f776e6572600082015250565b60006130c86020836120e8565b91506130d382613092565b602082019050919050565b600060208201905081810360008301526130f7816130bb565b9050919050565b7f45524332303a20696e73756666696369656e7420616c6c6f77616e6365000000600082015250565b6000613134601d836120e8565b915061313f826130fe565b602082019050919050565b6000602082019050818103600083015261316381613127565b9050919050565b7f496e697469616c697a61626c653a20636f6e7472616374206973206e6f74206960008201527f6e697469616c697a696e67000000000000000000000000000000000000000000602082015250565b60006131c6602b836120e8565b91506131d18261316a565b604082019050919050565b600060208201905081810360008301526131f5816131b9565b9050919050565b7f45524332303a207472616e736665722066726f6d20746865207a65726f20616460008201527f6472657373000000000000000000000000000000000000000000000000000000602082015250565b60006132586025836120e8565b9150613263826131fc565b604082019050919050565b600060208201905081810360008301526132878161324b565b9050919050565b7f45524332303a207472616e7366657220746f20746865207a65726f206164647260008201527f6573730000000000000000000000000000000000000000000000000000000000602082015250565b60006132ea6023836120e8565b91506132f58261328e565b604082019050919050565b60006020820190508181036000830152613319816132dd565b9050919050565b7f45524332303a207472616e7366657220616d6f756e742065786365656473206260008201527f616c616e63650000000000000000000000000000000000000000000000000000602082015250565b600061337c6026836120e8565b915061338782613320565b604082019050919050565b600060208201905081810360008301526133ab8161336f565b9050919050565b7f455243313936373a206e657720696d706c656d656e746174696f6e206973206e60008201527f6f74206120636f6e747261637400000000000000000000000000000000000000602082015250565b600061340e602d836120e8565b9150613419826133b2565b604082019050919050565b6000602082019050818103600083015261343d81613401565b9050919050565b7f45524332304361707065643a2063617020657863656564656400000000000000600082015250565b600061347a6019836120e8565b915061348582613444565b602082019050919050565b600060208201905081810360008301526134a98161346d565b9050919050565b60008190508160005260206000209050919050565b60006020601f8301049050919050565b600082821b905092915050565b6000600883026135127fffffffffffffffffffffffffffffffffffffffffffffffffffffffffffffffff826134d5565b61351c86836134d5565b95508019841693508086168417925050509392505050565b600061354f61354a61354584612201565b612abf565b612201565b9050919050565b6000819050919050565b61356983613534565b61357d61357582613556565b8484546134e2565b825550505050565b600090565b613592613585565b61359d818484613560565b505050565b5b818110156135c1576135b660008261358a565b6001810190506135a3565b5050565b601f821115613606576135d7816134b0565b6135e0846134c5565b810160208510156135ef578190505b6136036135fb856134c5565b8301826135a2565b50505b505050565b600082821c905092915050565b60006136296000198460080261360b565b1980831691505092915050565b60006136428383613618565b9150826002028217905092915050565b61365b826120dd565b67ffffffffffffffff811115613674576136736123c5565b5b61367e8254612619565b6136898282856135c5565b600060209050601f8311600181146136bc57600084156136aa578287015190505b6136b48582613636565b86555061371c565b601f1984166136ca866134b0565b60005b828110156136f2578489015182556001820191506020850194506020810190506136cd565b8683101561370f578489015161370b601f891682613618565b8355505b6001600288020188555050505b505050505050565b7f45524332304361707065643a2063617020697320300000000000000000000000600082015250565b600061375a6015836120e8565b915061376582613724565b602082019050919050565b600060208201905081810360008301526137898161374d565b9050919050565b7f416464726573733a2064656c65676174652063616c6c20746f206e6f6e2d636f60008201527f6e74726163740000000000000000000000000000000000000000000000000000602082015250565b60006137ec6026836120e8565b91506137f782613790565b604082019050919050565b6000602082019050818103600083015261381b816137df565b9050919050565b600081519050919050565b600081905092915050565b600061384382613822565b61384d818561382d565b935061385d8185602086016120f9565b80840191505092915050565b60006138758284613838565b915081905092915050565b7f45524332303a206d696e7420746f20746865207a65726f206164647265737300600082015250565b60006138b6601f836120e8565b91506138c182613880565b602082019050919050565b600060208201905081810360008301526138e5816138a9565b905091905056fe416464726573733a206c6f772d6c6576656c2064656c65676174652063616c6c206661696c6564a2646970667358221220770b410f63ce940c170e77bf8380f26ede23833065703af0b6c07c010fb99a2964736f6c63430008110033",
  "immutableReferences": {
    "702": [
      {
        "length": 32,
        "start": 1597
      },
      {
        "length": 32,
        "start": 1739
      },
      {
        "length": 32,
        "start": 2102
      },
      {
        "length": 32,
        "start": 2244
      },
      {
        "length": 32,
        "start": 2420
      }
    ]
  },
  "source": "// SPDX-License-Identifier: MIT\r\npragma solidity ^0.8.4;\r\n\r\nimport \"@openzeppelin/contracts-upgradeable/access/OwnableUpgradeable.sol\";\r\nimport \"@openzeppelin/contracts-upgradeable/token/ERC20/extensions/ERC20CappedUpgradeable.sol\";\r\nimport \"@openzeppelin/contracts-upgradeable/token/ERC20/extensions/ERC20BurnableUpgradeable.sol\";\r\nimport \"@openzeppelin/contracts-upgradeable/proxy/utils/Initializable.sol\";\r\nimport \"@openzeppelin/contracts-upgradeable/proxy/utils/UUPSUpgradeable.sol\";\r\n\r\n// UUPSUpgradeable ERC20 token\r\ncontract LeeChiaHao20 is\r\n    Initializable,\r\n    ERC20CappedUpgradeable,\r\n    ERC20BurnableUpgradeable,\r\n    OwnableUpgradeable,\r\n    UUPSUpgradeable\r\n{\r\n    /// @custom:oz-upgrades-unsafe-allow constructor\r\n    constructor() {\r\n        _disableInitializers();\r\n    }\r\n\r\n    function initialize() public initializer {\r\n        __ERC20_init(\"LeeChiaHao\", \"LCH\");\r\n        __ERC20Capped_init(1000000 * (10**uint256(18))); // cap supply = 1,000,000\r\n        __Ownable_init();\r\n        __UUPSUpgradeable_init();\r\n        initSupply(); // initial token supply\r\n    }\r\n\r\n    // override the _mint function from multiple parent contract\r\n    function _mint(address to, uint256 amount)\r\n        internal\r\n        override(ERC20CappedUpgradeable, ERC20Upgradeable)\r\n    {\r\n        super._mint(to, amount);\r\n    }\r\n\r\n    // initial token supply of 100,000 tokens\r\n    function initSupply() private onlyOwner {\r\n        _mint(msg.sender, 100000 * (10**uint256(18)));\r\n    }\r\n\r\n    function mint(address to, uint256 amount) public {\r\n        _mint(to, amount * (10**uint256(18)));\r\n    }\r\n\r\n    // override the transfer function and add partial burn function\r\n    function transfer(address to, uint256 amount)\r\n        public\r\n        override\r\n        returns (bool)\r\n    {\r\n        uint256 adjustAmount = amount * (10**uint256(18));\r\n        super.transfer(to, adjustAmount);\r\n        partialBurn(to, adjustAmount);\r\n        return true;\r\n    }\r\n\r\n    // override the transferFrom function and add partial burn function\r\n    function transferFrom(\r\n        address from,\r\n        address to,\r\n        uint256 amount\r\n    ) public override returns (bool) {\r\n        uint256 adjustAmount = amount * (10**uint256(18));\r\n        super.transferFrom(from, to, adjustAmount);\r\n        partialBurn(to, adjustAmount);\r\n        return true;\r\n    }\r\n\r\n    // burn 10% amount of transfer\r\n    function partialBurn(address account, uint256 amount) internal {\r\n        uint256 burn = amount / 10;\r\n        _burn(account, burn);\r\n    }\r\n\r\n    function _authorizeUpgrade(address newImplementation)\r\n        internal\r\n        override\r\n        onlyOwner\r\n    {}\r\n}\r\n",
  "sourcePath": "D:\\MMU\\First Job Preparation\\PundiX\\firstTest\\contracts\\LeeChiaHao20.sol",
  "compiler": {
    "name": "solc",
    "version": "0.8.17+commit.8df45f5f.Emscripten.clang"
  },
  "schemaVersion": "3.4.3",
  "updatedAt": "2022-09-11T09:40:11.931Z",
  "networkType": "ethereum",
  "devdoc": {
    "kind": "dev",
    "methods": {
      "allowance(address,address)": {
        "details": "See {IERC20-allowance}."
      },
      "approve(address,uint256)": {
        "details": "See {IERC20-approve}. NOTE: If `amount` is the maximum `uint256`, the allowance is not updated on `transferFrom`. This is semantically equivalent to an infinite approval. Requirements: - `spender` cannot be the zero address."
      },
      "balanceOf(address)": {
        "details": "See {IERC20-balanceOf}."
      },
      "burn(uint256)": {
        "details": "Destroys `amount` tokens from the caller. See {ERC20-_burn}."
      },
      "burnFrom(address,uint256)": {
        "details": "Destroys `amount` tokens from `account`, deducting from the caller's allowance. See {ERC20-_burn} and {ERC20-allowance}. Requirements: - the caller must have allowance for ``accounts``'s tokens of at least `amount`."
      },
      "cap()": {
        "details": "Returns the cap on the token's total supply."
      },
      "constructor": {
        "custom:oz-upgrades-unsafe-allow": "constructor"
      },
      "decimals()": {
        "details": "Returns the number of decimals used to get its user representation. For example, if `decimals` equals `2`, a balance of `505` tokens should be displayed to a user as `5.05` (`505 / 10 ** 2`). Tokens usually opt for a value of 18, imitating the relationship between Ether and Wei. This is the value {ERC20} uses, unless this function is overridden; NOTE: This information is only used for _display_ purposes: it in no way affects any of the arithmetic of the contract, including {IERC20-balanceOf} and {IERC20-transfer}."
      },
      "decreaseAllowance(address,uint256)": {
        "details": "Atomically decreases the allowance granted to `spender` by the caller. This is an alternative to {approve} that can be used as a mitigation for problems described in {IERC20-approve}. Emits an {Approval} event indicating the updated allowance. Requirements: - `spender` cannot be the zero address. - `spender` must have allowance for the caller of at least `subtractedValue`."
      },
      "increaseAllowance(address,uint256)": {
        "details": "Atomically increases the allowance granted to `spender` by the caller. This is an alternative to {approve} that can be used as a mitigation for problems described in {IERC20-approve}. Emits an {Approval} event indicating the updated allowance. Requirements: - `spender` cannot be the zero address."
      },
      "name()": {
        "details": "Returns the name of the token."
      },
      "owner()": {
        "details": "Returns the address of the current owner."
      },
      "proxiableUUID()": {
        "details": "Implementation of the ERC1822 {proxiableUUID} function. This returns the storage slot used by the implementation. It is used to validate that the this implementation remains valid after an upgrade. IMPORTANT: A proxy pointing at a proxiable contract should not be considered proxiable itself, because this risks bricking a proxy that upgrades to it, by delegating to itself until out of gas. Thus it is critical that this function revert if invoked through a proxy. This is guaranteed by the `notDelegated` modifier."
      },
      "renounceOwnership()": {
        "details": "Leaves the contract without owner. It will not be possible to call `onlyOwner` functions anymore. Can only be called by the current owner. NOTE: Renouncing ownership will leave the contract without an owner, thereby removing any functionality that is only available to the owner."
      },
      "symbol()": {
        "details": "Returns the symbol of the token, usually a shorter version of the name."
      },
      "totalSupply()": {
        "details": "See {IERC20-totalSupply}."
      },
      "transfer(address,uint256)": {
        "details": "See {IERC20-transfer}. Requirements: - `to` cannot be the zero address. - the caller must have a balance of at least `amount`."
      },
      "transferFrom(address,address,uint256)": {
        "details": "See {IERC20-transferFrom}. Emits an {Approval} event indicating the updated allowance. This is not required by the EIP. See the note at the beginning of {ERC20}. NOTE: Does not update the allowance if the current allowance is the maximum `uint256`. Requirements: - `from` and `to` cannot be the zero address. - `from` must have a balance of at least `amount`. - the caller must have allowance for ``from``'s tokens of at least `amount`."
      },
      "transferOwnership(address)": {
        "details": "Transfers ownership of the contract to a new account (`newOwner`). Can only be called by the current owner."
      },
      "upgradeTo(address)": {
        "details": "Upgrade the implementation of the proxy to `newImplementation`. Calls {_authorizeUpgrade}. Emits an {Upgraded} event."
      },
      "upgradeToAndCall(address,bytes)": {
        "details": "Upgrade the implementation of the proxy to `newImplementation`, and subsequently execute the function call encoded in `data`. Calls {_authorizeUpgrade}. Emits an {Upgraded} event."
      }
    },
    "version": 1
  },
  "userdoc": {
    "kind": "user",
    "methods": {},
    "version": 1
  }
}